:1000000013C300004AC3000048C3000046C30000F9
:1000100044C3000042C3000040C300003EC30000D0
:100020003CC300003AC300000C9470240C94582583
:100030000C94252432C3000030C300002EC30000FE
:100040002CC300002AC3000028C3000026C3000000
:1000500024C300000C944C2420C300001EC30000E5
:100060001CC300001AC3000018C3000016C3000020
:1000700014C3000012C3000010C300000EC3000030
:100080000CC300000AC3000008C3000006C3000040
:1000900004C3000002C3000000C30000FEC2000051
:1000A000FCC20000FAC20000F8C20000050109020B
:1000B000A10185020901A1000509190129081500FE
:1000C0002501950875018102050109300931158165
:1000D000257F95027508810609381581257F9501D0
:1000E00075088106050C0A38021581257F95017572
:1000F000088106C0C005010980A101850319012AF4
:10010000B700150126B700950175108100C0050CD8
:100110000901A101850419012AA002150126A002E6
:10012000950175108100C005010906A1018506052C
:100130000719E029E71500250195087501810205D9
:1001400007190029EF1500250195F07501810205B9
:10015000081901290595057501910295017503910D
:1001600001C005010906A101050719E029E71500ED
:100170002501950875018102950175088101050722
:10018000190029FF150026FF009506750881000556
:10019000081901290515002501950575019102959C
:1001A0000175039101C009023B00020100A0FA0998
:1001B0000400000103010100092111010001224492
:1001C0000007058103080001090401000103000084
:1001D0000009211101000122B60007058203200059
:1001E000011201000200000008D80473E8010001B8
:1001F0000200010C03410044004D003400320000B5
:100200000020034C006F00720065006E007A006FE2
:100210000020004C0065006F006E0069006E0069F0
:1002200000000004030904000101010101010101B2
:100230000102020202020202020203030303030399
:100240000303040404040404040505050505060667
:100250000606060707070707080808080909090925
:100260000A0A0A0B0B0B0C0C0C0D0D0D0E0E0E0FCB
:100270000F0F10101111111212131314141515165B
:10028000161717181819191A1A1B1B1C1D1D1E1ECC
:100290001F2020212222232424252626272829291D
:1002A0002A2B2C2D2D2E2F30313232333435363748
:1002B00038393A3B3C3D3E3F404142434445464746
:1002C00048494A4C4D4E4F50515354555658595A1F
:1002D0005B5D5E5F616264656668696B6C6D6F70C3
:1002E00072737577787A7B7D7E8082838587888A32
:1002F0008C8E8F91939596989A9C9EA0A2A3A5A769
:10030000A9ABADAFB1B3B5B7BABCBEC0C2C4C6C964
:10031000CBCDCFD1D4D6D8DBDDDFE2E4E7E9EBEE1D
:10032000F0F3F5F8FAFDFF2B0014001A0008001591
:100330000017001C0018000C00120013002F0029E9
:100340004204281624072109220A000B000D320E50
:10035000310F243338344239271D001B00060019A1
:1003600000050011001000360037002D003927006D
:10037000000000000029472A4628434C442C462907
:10038000470000000000002B000D000700180004CB
:10039000001B0013000B000F0010001A002D002995
:1003A00042062817240C21082212000500113215DC
:1003B0003116240A381442E200090019002F0034D3
:1003C0000033001D001C00360037000E00E6000060
:1003D000000000000029472A4628434C442C4629A7
:1003E0004700000000000001000814380225142610
:1003F0001435001E0264006402270223020100017A
:10040000002D1424022414271430022D0225022664
:100410000238003702141401003100210264143044
:10042000142E02300022021F0232023602010000A6
:1004300000000000000100010001004C000100016B
:100440000000000000000044003A003B003C003D7A
:10045000003E003F0040004100420043004500E0F4
:100460000048004900AA00A900A8004A004E004B1D
:10047000004D006500E4000100A600A500AC00AB43
:1004800000AE000100BE00BD004600A70001000054
:1004900000000000003900010001000100010039E6
:1004A000000000000000000000000000000000004C
:1004B0000000002C7828782778267825780000001E
:1004C00000000000000000000000002078217822D9
:1004D000782478237800000000000000000000006D
:1004E0000000002B782A7829780000000000000026
:1004F0000000000000000000002552000000000085
:1005000000000000000000007C000000000000006F
:1005100000000000000000000000000000000000DB
:1005200000405241520000000000000000000000A6
:1005300000000000000000000000000000000000BB
:1005400000000000000000000000000000037C002C
:10055000000000000000000000000000000000009B
:100560000000000000000000004B002A0052004C78
:10057000004E005500240025002600300038000001
:10058000004A00500051004F004D0054002100224D
:1005900000230036003700000029002B0049002806
:1005A000007A0037021E001F0020003602580000AB
:1005B000000000000000000000000000002B0027E9
:1005C0000000000000000000000000DD00DE00DF91
:1005D0000000000000DA00CD00D900DC00000000BF
:1005E0000000000000000000000000DB00CF00CE93
:1005F00000D000000000000000000000000000002B
:100600000000000000D300D400D50000000000006E
:1006100000000000000000000000000000D100D237
:10062000000000000000000011241FBECFEFDAE040
:10063000DEBFCDBF04B603FE19C08091CD049091FA
:10064000CE04A091CF04B091D0048730904BA74046
:10065000B04B61F41092CD041092CE041092CF04EE
:100660001092D004E0E0F8E3099500C024E0A4E58E
:10067000B2E001C01D92AD3CB207E1F712E0A0E08C
:10068000B1E0E4E2FFE402C005900D92A435B107A9
:10069000D9F70E9408200C941627B2CC80938404CA
:1006A0009093850408958093860490938704089519
:1006B00021E030E002C0220F331F8A95E2F78091DB
:1006C000860490918704822B932BEDCF21E030E0BC
:1006D00002C0220F331F8A95E2F720953095809152
:1006E00086049091870482239323DDCF943090F584
:1006F0008C3080F5E82FF0E08CE0989FE00DF11D44
:10070000112451E0E1FD54E0E0FD550FE2FD52956A
:1007100083E0F695E7958A95E1F7EE0FFF1FEE0F60
:10072000FF1FEA5AFB4F20E030E070E04191DF010B
:10073000CB01022E02C0969587950A94E2F7869522
:10074000880B8427852384278E932F5F3F4F243087
:10075000310561F70895292F943070F58C3060F5DC
:1007600090E03CE0239F800D911D1124682F67705D
:1007700023E0969587952A95E1F7FC01EE0FFF1F80
:10078000EE0FFF1FEA5AFB4F40E050E080E021915E
:1007900030E0062E02C0369527950A94E2F72170C4
:1007A000042E01C0220F0A94EAF7822B4F5F5F4F9D
:1007B0004430510561F7089580E00895E0918D047B
:1007C00090918C04E91302C080E008959F0157E0E6
:1007D000E59FF0011124E257FB4F5181561306C0EB
:1007E0005081581303C05581541305C02F5F3F4FEC
:1007F000F901E770E7CF81E0089580918D042091A1
:100800008C04281301C0089501968770FACF909147
:1008100088048095892380938804282F277061F4A9
:10082000891751F090918A0492FF06C086958695AB
:1008300086954CDF109288040895809181049091F0
:100840008B04892B909182049115C9F0892B90918A
:100850001901913021F49091890497FD11C096E01F
:1008600028E532E040E09150F90150812F5F3F4F81
:1008700051114F5F9111F7CF4111109282040895E9
:100880009EE120E632E0EECF8095982F80918104A2
:100890008923809381040895972F7430C8F46C30B5
:1008A000B8F48830C0F470E02CE0929F600D711DA8
:1008B000112490E3899F600D711D1124FB01EE0F3F
:1008C000FF1FE95DFC4F85919591282F822F089598
:1008D00020E090E0FBCF21E0FCCF803E9105D1F1FC
:1008E000C8F48133910509F481C048F48932910537
:1008F00009F471C08A32910509F47FC008958933E3
:100900009105E1F082389105C9F08533910509F42C
:100910005DC00895843E9105D1F148F4823E910571
:1009200031F1833E910541F181EE90E00895863EDC
:100930009105C1F1873E9105F1F108952091890457
:10094000237009F064C020918A0423FF14C089E257
:1009500090E008952091890420FD45C030918A04DB
:1009600030FF09C024FD24C083EE90E0089520915B
:10097000890422FDF7CF08952091890422FD44C007
:1009800030918A0430FD43C024FFF5CF11C020917F
:100990008A0421FFF0CF8091890484FD09C087EE8D
:1009A00090E008952091890423FFE5CF24FFF7CF3D
:1009B00080E090E008952091890423FD2BC03091C0
:1009C0008A0431FFE1CF84EE90E0089520918904FC
:1009D00025FFD1CFBCCF2091890425FD1EC02091D9
:1009E0008A0423FFC8CF89E390E008952091890409
:1009F00026FFC1CF8AE290E008952091890426FF66
:100A0000BACF81E390E0089582EE90E0089580EE01
:100A100090E0089586EE90E0089585E390E00895D3
:100A20009091890492FF10C041E0282F2471243056
:100A300009F040E031E0282F2871283009F030E03B
:100A4000431711F02CE0822793FF10C041E0282FBC
:100A50002471243109F040E031E0282F2871283139
:100A600009F030E0431711F02CE0822730918A041E
:100A700030FF10C051E0282F2171213009F050E0E3
:100A800041E0282F2871283009F040E0541711F078
:100A900029E0822731FF10C041E0282F2171213148
:100AA00009F040E031E0282F2871283109F030E0CA
:100AB000431711F029E0822794FF02C083FD877E4F
:100AC00008950F931F93CF93DF9307DFEC01D23587
:100AD00008F04DC0D03508F0C3C0C03ED10530F598
:100AE000CD3CD10508F09AC0C83AD10578F4C53A92
:100AF000D10508F090C0C130D10599F1CE0104971D
:100B0000813A910570F1C0E0D0E02BC0CE01885A47
:100B100091094B97C0F7C85AD0E0CC0FDD1FC951DF
:100B2000DE4F0990D881C02DD4641BC0D03490F41E
:100B3000D03208F0A8C0C83ED10598F0CE0191503F
:100B40009F3108F78D2F6CDF082F8C2F90E0C5DECA
:100B5000902B54C08C2F90E0C0DEDF70C82FD92BB3
:100B6000D06ACE01DF91CF911F910F910895C038C7
:100B700082E5D807B8F5C03682E5D80708F056C038
:100B8000C03482E5D807C8F4C03282E5D80708F03F
:100B900047C08C2F8695869520E2829FC001112444
:100BA000C37021E030E002C0220F331FCA95E2F784
:100BB000E901C82BD92BDD68D4CF8C2F869586957B
:100BC000877020E2829FC0011124C37021E030E0D1
:100BD00002C0220F331FCA95E2F7E901C82BD92BB7
:100BE000DC68BFCFC03C82E5D80750F48C2F8F71F2
:100BF000C03AD24580F5982F84EF906AEC01B1CFCE
:100C0000CE01805C9245809708F07DCFDC2FDF71AC
:100C1000C0EFD06AA6CFA497D064A3CFD065A1CFF0
:100C20008C2F8F71D82FC1EFD06A9BCF8C2F8695D8
:100C30008695877020E2829FC0011124C37021E055
:100C400030E002C0220F331FCA95E2F7E901C82B3A
:100C5000D92BDA6886CFE4DEC0E0D82FD06281CF0E
:100C60008C2F8F71DDDE93E0CC0FDD1F9A95E1F7BD
:100C7000DF70282F84FF04C090E1899F9001112428
:100C8000C22FD0696ECF8D2F8F71CADE082F8C2FA7
:100C900090E023DE902BEC01E1CFCF92DF92FF9228
:100CA0000F931F93CF93DF936C01009186041091F3
:100CB00087048091840490918504082B192BCFE040
:100CC000D0E081E090E00C2E02C0880F991F0A94BA
:100CD000E2F780239123892B61F4219790F7F12C7F
:100CE0008F2DDF91CF911F910F91FF90DF90CF90CB
:100CF0000895FC2EB6018C2FCFDDE3DE019769F35A
:100D0000EFCF1F93CF93DF93FC012581C081D18169
:100D1000CE01211571F0611561F0BFDF182F682F2A
:100D2000CE01E4DCBE01812FB7DDDF91CF911F91B1
:100D3000089511DD182FF6CFCF93DF93EC01ADDFCF
:100D4000BE01AADDBEDEDF91CF910895FC012481B2
:100D5000211599F080819181EFDF282F92959F7066
:100D6000963099F060F4925F9F70923030F4203F9B
:100D7000B1F038F481E0283E38F080E008959A5FC1
:100D8000F3CF81E0243FC9F7089591E0213F09F0B6
:100D900090E081E0283E08F080E0892B089581E012
:100DA000089580E00895F894E82FE295EF70F0E060
:100DB00041A18F7021E001C0220F8A95EAF7922F9E
:100DC0009095942391A392A1822F892B82A378944A
:100DD0000895CF92DF92EF92FF921F93CF93DF930C
:100DE000462F172FE82FF0E0E95DFD4F71110CC081
:100DF000E4918E2F7E2F6E2FDF91CF911F91FF9068
:100E0000EF90DF90CF900895F491EF2F86E0689FE8
:100E1000E00111242FEF30E0CE01B9010E949B25A3
:100E2000DB01CA01880F991F65E56A9FA0016B9FCE
:100E3000500D1124841B482F440F480FC901811BFA
:100E40009109F89F7001F99FF00C11248F2D149FC8
:100E5000B0011124672F70E06901C61AD70AB601E4
:100E6000F69F6001F79FD00C1124A330B10549F122
:100E7000B901641B7109AB01149FB001159F700D7E
:100E80001124672F70E0261B370BF29FA001F39F00
:100E9000500D1124752FCC3FD34050F4A130B10533
:100EA000A1F0129709F0A7CFEF2D852F7F2FA3CFA9
:100EB000A430B10569F0169709F49DCF7F2D8D2DD3
:100EC0009ACF7D2DEF2D8F2F96CF7F2FED2D93CFA6
:100ED000E52F7F2DF8CF282F269F020E20E0211D21
:100EE0001124822F08959C0180E090E0269F020E3D
:100EF000811D369F800D911D1124830F911D089532
:100F0000AC018230910508F408959FEF413E8EE1D7
:100F1000580740F49A0195E0369527959A95E1F7A0
:100F2000922F985F61E0262F290F3327331F3595C5
:100F30002795822F229FF001239FF00DF00D1124A1
:100F40004E175F0738F4922F9150961760F7862F4F
:100F5000815008952F3FE9F3622F6F5FF6CF4091E4
:100F6000090150910A0125E038E0429FC001439FEA
:100F7000900D529F900D1124875E994C809309012A
:100F800090930A01890F0895CF93DF93EB01269583
:100F9000E22F26FDE0959E2F9F7026FD9F5FE69530
:100FA000E695E695E670F0E0EF5DFE4F3181399F02
:100FB000302D912D112432953F709295907F392BD1
:100FC0009081930F27FD919597FD9195682F892F1B
:100FD000880F81DFBE01DF91CF9108950F931F939A
:100FE000CF93DF93162F072FD82FC22FE42FF0E0D7
:100FF000EE0FFF1FE75AFE4F64EE80816CDF4D2F2E
:1010000050E0282F30E0245E3F4F6C2F70E0C90184
:101010008C1B91091AF4CB01821B930B23E0880FE0
:10102000991F2A95E1F7481B590BCA0157FD80E02B
:101030006D2F51DF612F702FDF91CF911F910F9195
:101040000895E42FF0E0EE0FFF1FE75AFE4F608196
:10105000621B0895E42FF0E0EE0FFF1FE75DFE4FE7
:1010600061A9621B08950F93CF93DF93C72FD82FE9
:10107000652F607821153105E1F0F90137FF04C0D3
:10108000EE27FF27E21BF30BBA016E0F7F1F57FD00
:1010900017C04E1B5F0BE0E25E9F902D4E9F802D90
:1010A000912911240E94AF2580E2861B682F37FD0D
:1010B0006195600F7C2F8D2FDF91CF910F91089557
:1010C000CB0160E2969F902D869F802D912911245F
:1010D000BF01641B750B0E94AF2580E6E6CFCF935E
:1010E000DF93EB0151114FEF682F842F8095F3DED2
:1010F000BE01DF91CF910895EF92FF920F93970178
:10110000201B3109A90151114FEF342F3095282FA1
:10111000230F08F42FEF822F640F0F91FF90EF90B1
:10112000089580914803816080934803089516C113
:1011300008951F93CF93DF93C82FD0E0FE01E355AE
:10114000FE4F808190910701892389F008DF182FD5
:1011500006DF20E8829FC0011124792F7158612F8A
:1011600080917C0436DE472F282FCE01E0DFDF910F
:10117000CF911F910895FDC0089595E1899F802D1D
:101180001124982F9B5E9B3208F09AE20895EF920B
:10119000FF920F931F93CF93DF937C018091060101
:1011A000ECDFC82F192F60917D046695669521E0CC
:1011B000620F08F46FEF809144039091450393DE32
:1011C000082FD0E0C11748F081E01A3208F080E023
:1011D000CDB7DEB7E6E00C94D626FE01E355FE4F10
:1011E000808190910701892379F060917A04709150
:1011F0007B0480917C04202F4C2FF7010995E9DDB9
:10120000472F282FCE0193DF2196DCCF80917904E0
:1012100091E089278093790410921B0182CF9091ED
:101220007904937071F08F3008F08EE0880F880F8A
:10123000909179049370892B8093790410921B010B
:1012400070CF089580917904869586958F5F8F3051
:1012500008F081E0E4CF80917904869586958150ED
:1012600009F48EE0DCCF90917904937051F0809373
:101270007A0460937B044B3A08F04AEA40937C047A
:1012800050CF0895E9E7F4E0818190E043816281E5
:101290000896E9CFE9E7F4E08181438162818850D3
:1012A000990BE1CFE9E7F4E0628128E1620F08F4ED
:1012B0006FEF8181438190E0D6CFE9E7F4E062816E
:1012C00028E1621B08F460E08181438190E0CBCF8C
:1012D000E9E7F4E0438120E1420F08F44FEF818118
:1012E000628190E0C0CFE9E7F4E0438120E1421B56
:1012F00008F440E08181628190E0B5CF20917D04C7
:1013000030E1230F08F42FEF20937D040ACF2091C2
:101310007D0430E1231B08F420E020937D0401CFFD
:1013200081E090E020917E042F3F09F080E0815E13
:101330009E4FFC01808180937E04F3CE81E090E09B
:1013400020917E042F3F09F080E0815E9E4FFC01DA
:10135000808180937E04E5CE279A0895FC01EE0FEC
:10136000FF1FE80FF91FE556FD4F6183408322837D
:101370000895FF920F931F93CF93DF93182F062F9B
:10138000F42EC0E0D0E02F2D402F612FCE01E6DFFC
:101390002196CA32D105B9F7CDB7DEB7E5E00C9496
:1013A000D726382F25EB3203C001112497FF04C044
:1013B00080589109892F089580589F4FFBCF8091C5
:1013C000700480FD14C081FD14C082FD16C08091A0
:1013D0006F04811581F08E3180F420E5829FC00179
:1013E00011246EE170E00E94AF25862F089584E1FC
:1013F000089588E2089588E0089580E50895809131
:10140000700480FD17C081FD17C082FD19C0809156
:101410006E04811599F0883298F428E0829FC0010B
:10142000112468E270E00E94AF256115710551F04A
:10143000862F089562E0FCCF64E0FACF61E0F8CF38
:1014400068E0F6CF81E00895E0914C04F0914D04FE
:10145000309739F00190F081E02D309711F0099527
:10146000089580E00895A3E0B0E0E9E3FAE00C9489
:10147000BE26209197023091980228173907B1F0C3
:101480008093970290939802E0914C04F0914D0460
:10149000309761F00084F185E02D309739F023E03A
:1014A00029838A839B83CE01019609952396E2E0E6
:1014B0000C94DA26A3E0B0E0E0E6FAE00C94BE2655
:1014C000209195023091960228173907B1F0809348
:1014D000950290939602E0914C04F0914D04309760
:1014E00061F00084F185E02D309739F024E0298304
:1014F0008A839B83CE01019609952396E2E00C94A2
:10150000DA2690911901913099F0A8E5B2E0EFEF59
:1015100090E02C91821759F01196EF3F19F42111A8
:1015200001C0E92F9F5F9630A1F7EF3FC1F4089506
:101530009091890497FFE9CFE82FE695E695E69527
:10154000803FA8F7F0E0E25AFD4F877021E001C02C
:10155000220F8A95EAF78281822B82830895FE2FDB
:10156000FF0FFF0BEA5AFD4FF8CF90911901913010
:1015700021F49091890497FD0CC0E8E5F2E0919187
:10158000891302C0DF011E9292E0EE35F907B9F728
:101590000895E82FE695E695E695803FC8F7F0E0D8
:1015A000E25AFD4F9DEF81FD97EF80FF959582FDFB
:1015B00092958281892382830895809118010895EC
:1015C0002FB7F8948091910290919202A09193028A
:1015D000B09194022FBF0895F3DF9C0190917304A2
:1015E00080917404982B21F02093E2033093E3035D
:1015F0009091750480917604982B21F02093E0035C
:101600003093E103E0914C04F0914D04309759F090
:101610000680F781E02D309731F082E080937104ED
:1016200081E794E009950895611509F440C0E82F19
:10163000ED5CE33148F4F0E0E85EF84D0C94C2252F
:10164000BEDE819580937404C7CFB9DEFBCFB7DED1
:10165000819580937304F8CFB2DEFBCFD0DE809308
:101660007504F2CFCCDE8195FACFC9DE81958093E7
:101670007604EACFC4DEFBCF815D990B21E001C087
:10168000220F8A95EAF780917204822B809372046C
:10169000DBCF80917004816080937004D5CF8091FE
:1016A00070048260F9CF809170048460F5CF40911E
:1016B00073048D3C59F48091740487FF0DC010921F
:1016C0007404411559F410926F0408C08E3C81F4E3
:1016D0008091740418169CF3411581F08091750473
:1016E00090917604892B09F0AFCF10926E04ACCFA5
:1016F0008F3C41F447FFF0CF109273048091740443
:101700008115E0CF803D19F41416B4F3E5CF909124
:101710007504893D29F41916FCF610927504DCCF86
:101720008A3D19F497FFD8CFF8CF909176048B3D7E
:1017300029F497FFD1CF10927604CECF8C3D19F4C7
:101740001916CCF3C9CF982F915D983078F4815D4C
:10175000990B21E001C0220F8A95EAF7822F80952C
:1017600090917204892380937204B6CF8D3D31F439
:10177000809170048E7F80937004AECF8E3D21F4F3
:10178000809170048D7FF7CF8F3D09F0A5CF8091B8
:1017900070048B7FF0CF2FB7F89460919102709115
:1017A000920280919302909194022FBF0895FC01C0
:1017B00020918702309188022617370748F061157B
:1017C000710529F49091E8009E779093E8009B01C1
:1017D00090E02115310541F4911106C08091E80097
:1017E00082FF32C080E00895809175038115C1F1B8
:1017F0008530C1F18091E80083FD30C08091E80020
:1018000082FDECCF8091E80080FFE3CF8091F30070
:101810004091F200582F2115310519F0483051053B
:1018200058F091E04830510509F090E04091E8000F
:101830004E774093E800CDCF81918093F100215005
:1018400031094F5F5F4FE7CF80917503811541F0FC
:10185000853041F08091E80083FFC0CF81E008959A
:1018600082E0089583E00895982F9093E900891706
:1018700071F07091EC002091ED005091F00021FD8D
:1018800009C09F5F973089F78093E9000895762F0C
:10189000242F50E03091EB003E7F3093EB003091ED
:1018A000ED003D7F3093ED003091EB0031603093DF
:1018B000EB007093EC002093ED005093F00020912A
:1018C000EE0027FDDECF08958091810287FF13C0CF
:1018D0008091E80082FF06C08091E8008B778093BA
:1018E000E8000895809175038111F2CF08958091E9
:1018F00075038115D9F38091E80080FFF8CF8091BE
:10190000E8008E77ECCF2091E4003091E50095E679
:10191000A9012091EC00822F817020FF06C08091E8
:10192000E80080FF06C080E008952091E80022FDD5
:101930001AC080917503811589F0853089F08091F6
:10194000EB0085FD0FC02091E4003091E5004217C7
:101950005307F9F29150E1F684E0089582E008958A
:1019600083E0089581E00895CF93DF93C8EDD0E040
:1019700088818F7E8883E7EDF0E0808181608083BD
:1019800084E082BF81E08093800288818E7F88839B
:10199000E2EE10821092DA00A1EEB0E01C92888193
:1019A0008F77888388818068888388818F7D88830A
:1019B00019BC1092750310927F021092740310925A
:1019C0007E02A0EE8C918B7F8C93888181608883CE
:1019D00042E060E080E048DFA1EEB0E08C918E7FD5
:1019E0008C93E2EEF0E0808181608083808188606A
:1019F0008083E0EE80818E7F808388818061888310
:101A0000DF91CF910895E8EDF0E080818E7F8083B3
:101A10001092E2001092DA001092E100A0EEB0E025
:101A20008C9181608C9380818F77808319BCA7ED26
:101A30008C918E7F8C9380818F7E80831092800228
:101A4000089535B13F7725B120684FB7F8948BE9F9
:101A500092E0FC010196508168E025B9000000C0C9
:101A600057FF35B9550F000000C000C000C035B9A0
:101A700000C06A9591F753E08931950751F74FBF40
:101A80008FE594E00197F1F700C00000089581E030
:101A90008093E00080E28093D8001092C9008FE12B
:101AA0009EE40197F1F700C00000A7E0B0EBCD0184
:101AB0008093CD049093CE04A093CF04B093D00430
:101AC00088E19CE00FB6F894A895809360000FBE63
:101AD00090936000FFCF0F931F93CF93DF93EB01A1
:101AE0008A0190917503943059F58093E9008FEF46
:101AF0009091E80095FD06C095ED9A95F1F70000EC
:101B00008150B1F78091E80085FF1AC0FCDE811199
:101B100012C08091E80085FD06C08091E8008E77B4
:101B20008093E800F3CF88818093F100015010404A
:101B300011F02196EECF8091E8008E778093E80037
:101B4000DF91CF911F910F910895CF93DF93EC0117
:101B500048E050E0BC0181E0BEDF88E0FE01A9E87A
:101B6000B2E001900D928A95E1F7DF91CF9108954F
:101B700040E250E0BC0182E0AECF46E050E0BC0164
:101B800082E0A9CF43E050E0BC0182E0A4CF909175
:101B90008A0492FB222720F9281779F080FB92F91A
:101BA00090938A046091890470918A0484E090E0A3
:101BB0000E947E2682E00C9407040895809119010A
:101BC000813069F58091890487FF29C00E941D0436
:101BD00080935F0240E250E06CE274E08EE592E0B8
:101BE0000E941B26892BD1F080E2EEE5F2E0ACE208
:101BF000B4E001900D928A95E1F7E0914C04F091E8
:101C00004D04309759F00480F581E02D309731F084
:101C100086E080935E028EE592E0099508950E9429
:101C20001D048093560248E050E06EE474E086E5BF
:101C300092E00E941B26892B89F388E0E6E5F2E01A
:101C4000AEE4B4E001900D928A95E1F7E0914C0486
:101C5000F0914D04309711F30280F381E02D30971D
:101C6000E9F286E592E0D9CFCF93C82F8115C1F074
:101C70008450813A70F580911901813021F480916E
:101C8000890487FD0FC0E8E5F2E08081C817E9F01C
:101C9000319682E0EE35F807C1F78C2F32DC8EDF0B
:101CA000CF910895EC2FE695E695E695F0E0E25A9F
:101CB000FD4F828190E04C2F477021E001C0220F40
:101CC0004A95EAF78223892B41F38C2F4EDC76DF8D
:101CD000E4CF8C2F805E883060F4C77081E001C053
:101CE000880FCA95EAF7C0918104C82BC09381047C
:101CF000D6CF8C2F855A833028F48C2F8452990BA1
:101D0000B2DBCECFEC2FE85AEB3148F4F0E0EE0F27
:101D1000FF1FE35EFD4F80819181CCDBC1CF8C2F13
:101D20008D5C833108F0BCCF61E08C2F7DDCB8CFB7
:101D3000811549F1982F9450913A10F416DC3ECF5A
:101D4000982F905E983058F4982F81E091FD84E0B0
:101D500090FD880F92FD82950E944404F0CF982F49
:101D6000955A933018F480E090E07DCB982F985AE4
:101D70009B3118F480E090E09DCB982F9D5C9331CF
:101D800010F460E051CC0895811531F090918104F8
:101D9000982B9093810412CF0895811519F00E9419
:101DA00044040CCF08951092810480911901813070
:101DB00001F58091890487FF1CC0E0E6F2E08EE126
:101DC00011928A95E9F780E090E04DDB80E090E0A9
:101DD00071DB10928B04F2DEE1E7F4E086E0119211
:101DE0008A95E9F710926F0410926E0410927004B5
:101DF000F3CBE8E5F2E086E0E3CFD5DF88E19CE0D5
:101E00000FB6F894A895809360000FBE9093600081
:101E1000FFCFAAE2B0E0EFE0FFE00C94BD2681E83E
:101E200092E0FC0101962091F100208322E08938A4
:101E30009207B9F780918202893009F457C0C8F43B
:101E4000823009F4B2C0833009F482C0813081F15C
:101E50008091E80083FFE6C0809181029091820228
:101E60009A3008F0DFC0E92FF0E0E55DF84D0C9402
:101E7000C2258A3009F489C08B3051F780918102E4
:101E8000813231F78091850290918602892B01F78A
:101E90008091E800877F8093E80016DD81E09091D3
:101EA0008302911101C080E0809319017CDFD0CFC3
:101EB00080918102813A61F68091E800877F80936A
:101EC000E8008091850290918602892B59F060E0AC
:101ED00080E090E070E06BDC8091E8008B7780938D
:101EE000E800B6CF68E089E892E0F4CF8091810203
:101EF000813209F0ADCF80918502909186020297E0
:101F000008F0A6CF8091E800877F8093E800809159
:101F1000E80082FF18C02091F3008091F200922F18
:101F2000029731F48091F100813011F0863021F474
:101F30008091F100809318018091E8008B77809365
:101F4000E800C2DC85CF809175038111E0CF80CF9E
:101F500080918102813A09F07BCF80918502909136
:101F60008602892B09F074CF8091E800877F8093E7
:101F7000E8008091E80080FFFCCF809119018093F8
:101F8000F1008091E8008E77DACF80918102813272
:101F900009F05ECF8091E800877F8093E80094DCB1
:101FA000809184028093170153CF80918102813AFE
:101FB00009F04ECF8091E800877F8093E800809100
:101FC000E80080FFFCCF80911701D9CF803889F0DD
:101FD000823841F5809185028F70873018F58093A3
:101FE000E9008091EB0085FB882780F91092E900D9
:101FF00006C080917403880F90917E02892B909186
:10200000E800977F9093E8008093F1001092F10030
:102010008091E8008E7723C0811116C080918302E1
:10202000813009F18091E80083FF0AC08091E800C7
:10203000877F8093E8008091EB0080628093EB00C3
:10204000AA96E3E00C94D926823061F7809183024E
:10205000811579F01092E9008091E800877F8093E4
:10206000E80032DCDFCF933009F080E08093740326
:10207000F1CF809185028F70282F2150263090F665
:102080008093E9002091EB0020FFE4CF933031F4FE
:102090008091EB0080628093EB00DCCF9091EB00AD
:1020A00090619093EB0021E001C0220F8A95EAF73E
:1020B0002093EA001092EA008091EB008860EBCF59
:1020C0008111B0CF809183028F77182F8091E30028
:1020D0008078812B8093E3008091E800877F809354
:1020E000E800F2DB8091E80080FFFCCF8091E30004
:1020F00080688093E30083E0111101C082E0809347
:10210000750390CF8058823008F08CCF20918302E5
:10211000309184022C3D83E0380789F583E08A837F
:102120008AE289834FB7F894DE01139620E03EE0FF
:1021300051E2E32FF0E050935700849120FF03C059
:1021400082958F703F5F8F708A30B8F0895C8D9375
:102150001D922F5F243169F74FBF8091E800877F80
:102160008093E8006AE270E0CE01019620DB809166
:10217000E8008B778093E80055CF805DE8CF832F10
:1021800090E08330910519F160F48130910509F4F4
:102190006CC08230910509F045CF8BE3E6EAF1E0AF
:1021A00029C020918502309186028132910509F47F
:1021B00053C08232910509F035CF2130310508F442
:1021C0005CC009F02FCF86EBECEAF0E013C0822F61
:1021D00090E0213099F182309105B9F1009709F032
:1021E00021CFE3E2F2E0E4918E2FE3E2F2E0009708
:1021F00009F418CF2091E800277F2093E800209170
:102200008702309188028217930708F49C0140E00E
:1022100021153105B1F5411134C08091E80082FDEE
:10222000A6CF80917503811509F4A1CF853009F4FB
:102230009ECF8091E80083FFF0CF99CFE1E0F2E0FC
:10224000E4918E2FE1E0F2E0D2CFE3EFF1E0E49110
:102250008E2FE3EFF1E0CBCF2130310550F009F0C4
:10226000E1CE89E0E1EDF1E0C5CF82E1E1EEF1E020
:10227000C1CF89E0E8EBF1E0BDCF84E4E2E6F1E034
:10228000B9CF80917503811509F471CF853009F4B8
:102290006ECF8091E80083FD6ACF8091E80082FDD7
:1022A000BCCF8091E80080FFB3CF4091F3008091D4
:1022B000F200942F2115310519F08830910550F066
:1022C00041E0089709F040E08091E8008E77809324
:1022D000E8009ECF44914093F1003196215031099E
:1022E0000196E8CF803809F09DCE8091E800877F85
:1022F0008093E80080917F028093F10089CE811164
:1023000091CE80918302182F823008F08BCE80917D
:10231000E800877F8093E80010937F02D5DA1115DB
:1023200099F084E08093750342E061EC81E09CDAEF
:1023300042E261EC82E098DA80917503843051F4D6
:1023400082E080931A016ECE8091E30087FDE9CF91
:1023500081E0E8CF81E0F5CFA8E0B0E0E2EBF1E189
:102360000C94B226FE013196DF0188E01D928A9519
:10237000E9F707ED11E051E0E52EF12CDE2ECF2E2E
:102380005701F80181918F018F3F09F44CC0F894F7
:10239000E82FE295EF70F0E021A18F704A2D01C087
:1023A000440F8A95EAF7922F942B91A392A1842F40
:1023B0008095892382A3789400C043EE842E41E067
:1023C000942EED2DFC2D970120953095D4016D9123
:1023D0004D01819191916F3F09F4CFC0462F4295F5
:1023E0004F70405E50E0DA014C916F7002C055951D
:1023F00047956A95E2F740FDC0C08E299F29AF013D
:1024000042505109DA018D939D9387EE881681E041
:102410009806E1F6F80182918F3F11F00E94D306F1
:1024200080EA8A95F1F7EE0CFF1C81E0033E180765
:1024300009F0A7CF48E050E06D2D7C2D82E294E0BA
:102440000E941B268C01892B49F088E0ED2DFC2D84
:10245000A2E2B4E001900D928A95E1F7109219047E
:1024600080911804F82E811509F48EC0A9D84091E6
:102470001604509117049C01241B350B80931604FD
:10248000909317048417950709F1C90191118FEFF3
:1024900020E030E060E050E0F901EB51FC4F40E01B
:1024A0009191911539F0DF011197891708F468C0EF
:1024B0001C926F2D4F5F4C3099F7245F3F4F2033B4
:1024C000310551F760931504509318040115110557
:1024D00061F480911504811509F44BC0F11005C019
:1024E0006FD880931604909317041092150480906F
:1024F000180402E214E0AAE1B4E080E090E0912C3C
:102500006C01C394F801619171918F012D913D91FE
:10251000622773273B01FC01EB51FC4F40E050E088
:102520007601042E02C0EE0CFF1C0A94E2F7B30100
:102530006E217F215B01A114B10451F0B080B11074
:1025400007C06AE060832E253F2599249394892C47
:102550004F5F5F4F31964C30510511F7FD013293BB
:1025600022930C968033910569F69092190480921B
:1025700018042896EEE00C94CE26822393233FCFB6
:10258000981B9C935F2D96CF0115110509F4A1CFDF
:10259000A7CFA0E1B0E0EFECF2E10C94AE26182F4B
:1025A00080911601811325C0909179049370209138
:1025B000150130E081E09217130609F480E0809362
:1025C000080180917E0490910701981739F080935B
:1025D000070140E060E080E00E94BB081F3058F433
:1025E000E12FE150EE3060F4F0E0EB5CF84D0C943C
:1025F000C22581E0E4CF1F3F09F408C580E03FC059
:10260000809108018115D1F340E060E080E00E94F4
:10261000BB08F4CF809106010E94BD088983092F71
:1026200060917A0470917B0480917C040E94E90699
:10263000F62EE72ED82E898190E08D839E838D81A2
:10264000081709F020F481E00A32C8F0D7CFED81F5
:10265000FE81E355FE4F808190910701892339F077
:102660002D2D4E2D6F2D8D819E810E9497088D817D
:102670009E810196E2CF84EC97E00E94C70890917A
:1026800006019F5F909306018111EAC482E0809366
:102690001B01809108018111E3C41111E1C483E0A1
:1026A000DDC48EEE97E0E9CF81E298E0E6CF8AE2E2
:1026B00098E0E3CF809106010E94BD088983092F2D
:1026C00060917D04669580914403909145030E943A
:1026D0007307D82E898190E08D831E82880F991F01
:1026E000875D9E4F7C018D81081709F008F4ABCF00
:1026F000ED81FE81E355FE4F808190910701892392
:1027000061F1F70140A94057550B21A92052330B25
:10271000449FB001459F700D700D1124229FC00190
:10272000239F900D900D1124860F971F0E94800704
:1027300090E0BC01660F771F680F791F759567954C
:102740006D0D70917B0480917C040E94E906472FF7
:10275000282F8D819E810E94970882E0E80EF11C4F
:102760008D819E8101968D839E83BDCF80910601D0
:102770000E94BD088983D92E60917D046695809161
:102780004403909145030E947307082F898190E0CC
:102790008D831E82880F991F875D9E4F7C018D81DE
:1027A000D81609F020F481E09D2D9A324ECFED81AC
:1027B000FE81E355FE4F8081909107018923B9F096
:1027C000F70121A92052330B40A94057550B6091C6
:1027D0007A0470917B0480917C040E9433080E94EB
:1027E000E906472F282F8D819E810E94970882E05D
:1027F000E80EF11C8D819E8101968D839E83CFCF43
:1028000080910601898381111FC060917D0420E1C0
:10281000620F08F46FEF80914403909145030E948A
:10282000730765E070E00E949B25892B69F40E9484
:10283000AF072AE2829FA0011124852F880F880B01
:10284000509304018093050189810E94BD089A83F9
:1028500089839091080191111AC02091040130914F
:10286000050128173105B8F08A812817310598F439
:10287000822F0E9499088BE2809304011092050137
:102880000AC089810E94990889818F5F8983898123
:102890009A818917B0F381E09A8187CF80910601F0
:1028A000898381110CC080910801811541F00E943B
:1028B000AF072AE2829FC0011124909322038981ED
:1028C0000E94BD08092F20911E0330911F034091E3
:1028D0002003509121032F83388749875A874091DD
:1028E0004403509145036091460370914703CF80A4
:1028F000D884E984FA84C416D506E606F70608F0FB
:10290000A2CE90912203981740F1901730F5892FAD
:1029100090E08D831E82FC01E355FE4F80819091F3
:1029200007018923D1F00E94AF0781FD40C00E94BA
:10293000AF07F82E0E94AF0720E8829FC001112444
:10294000792F715880917C046F2D0E94E906472FE2
:10295000282F8D819E810E9497080A3208F473CE39
:102960000E94AF072AE2829FC001112490932203A4
:1029700060917D0480E097E00E94730720E038E0DA
:10298000281B390B8091440390914503A091460385
:10299000B0914703820F931FA11DB11D80931E03A9
:1029A00090931F03A0932003B09321034CCE80E0AB
:1029B00070E0F12CC9CF80910801811529F040E029
:1029C00060E080E00E94BB08809106010E94BD0883
:1029D0009B838091440390914503A0914603B0915D
:1029E000470340913B0350913C0360913D0370913C
:1029F0003E03481759076A077B0708F0AFC060918C
:102A00007A0470917B0480917C040E94E906362E42
:102A10007A83282E83E293E08D839E83B9E2EB2EA6
:102A2000B1E0FB2E57018CE0E80EF11C45013701A7
:102A3000CD80DE8000E0F60181916F01811509F4FF
:102A400090C0422C5A803982F40181914F0190E06C
:102A5000FC01E355FE4F208130910701232329F02B
:102A6000242D452D69810E949708F30182913F0131
:102A700090E0FC01E355FE4F2081309107012323B4
:102A800029F0242D452D69810E949708F601808147
:102A900082930F5F053079F6ED81FE818581C22C2E
:102AA000DA80032D811103C0C12CD12C00E0F50187
:102AB000858190E0FC01E355FE4F208130910701B4
:102AC000232329F02C2D4D2D602F0E949708F5010E
:102AD000868190E0FC01E355FE4F20813091070193
:102AE000232329F02C2D4D2D602F0E9497080E9442
:102AF000AF07837091E0811190E0ED81FE819583B5
:102B0000CF0106968D839E8389E5E81681E0F8065D
:102B100009F088CF20917D0430E1230F08F42FEFD6
:102B200060E1822F90E00E947307BC0188EB9BE07C
:102B30000E949B258091440390914503A0914603F8
:102B4000B0914703860F971FA11DB11D80933B03D2
:102B500090933C03A0933D03B0933E0381E09B819F
:102B600024CE412C512C19826FCF809106010E94F6
:102B7000BD08482E692E80910801811559F040E06A
:102B800060E080E00E94BB08E6E7F3E080E311929A
:102B90008A95E9F78091060181111BC0809140035D
:102BA000909141038D839E830E94E00A2D813E8196
:102BB000821B930B21E08931910508F420E02093DA
:102BC0003F03499730F00E94E00A809340039093BE
:102BD0004103E12CF12CA12CC701875D9E4F4C01D4
:102BE000C7018A589C4F6C01B12CF40181918983F3
:102BF0004F01841508F43AC0861508F037C0A39435
:102C000090E08D831E82FC01E355FE4F8081909100
:102C10000701892359F1F6010081202F35E5231B97
:102C200008F420E0722E30907B042AEA200F08F48A
:102C30002FEF822F880F820F60917C048E5F0E949D
:102C40006B076AEA6719732D0E94E906472F282F40
:102C50008D819E810E94970880913F03811531F0FC
:102C600021E0021B08F400E0F6010083B3948FEF2B
:102C7000C81AD80A8B2D8C3009F0B7CF84E2E81639
:102C8000F10419F481E0962D90CD8CE0E80EF11C52
:102C90008A2D853108F4A0CFF5CF00917C04A02EB9
:102CA000B12C7501EE0CFF1CEA0CFB1CF694E794AA
:102CB000F694E794E9828FEF90E0B5010E94AF258A
:102CC000362E80910801811569F040E060E080E0D7
:102CD0000E94BB08E6E7F3E080E311928A95E9F7EA
:102CE00010924303809142038F5F8093420379E205
:102CF000672E71E0772EE6E7CE2EE3E0DE2E25018B
:102D00004E185F08CD82DE824301212C809143035F
:102D1000822909F04CC00E940F26853595400CF0A1
:102D200046C0F6010083F401E081EF3FD1F0AD81B0
:102D3000BE812C91F0E08981821708F048C030E014
:102D40002E193F092E9DC0012F9D900D3E9D900D87
:102D50001124B2010E949B25262F402FCF010E94F3
:102D6000970823948CE0880E911C8D819E810C968F
:102D70008D839E83822D843049F68FEFC81AD80A3E
:102D80008FEF681A780A82E8C81683E0D80609F03F
:102D9000B9CF80914203381202C010924203809151
:102DA00043038F5F8D31F8F48093430327CCED818B
:102DB000FE818081811509F4B6CF801708F0B3CF6A
:102DC000909142033912AFCF81508083ACCF2A9DBE
:102DD000C0012B9D900D1124B7010E949B25462F09
:102DE00020E060E0BBCF109243032EE833E083E0A5
:102DF000902F9150B901E6E7F3E0833021F444A12C
:102E0000041301C094A3DB014D91BD01401750F0A4
:102E1000AD01415051094D835E83DA019C93DB0182
:102E20001B960C93319643E0E238F40731F781505A
:102E30002C5031098111DECFE1CB809106010E9437
:102E4000BD088983092F20917D0431E0230F08F408
:102E50002FEF30E040E050E0CA016FEF7FEF0E94BB
:102E60008226790189818D831E82C22EBF2C2D81FD
:102E7000201708F0E8CBED81FE81E355FE4F8081FD
:102E800090910701892319F1409149034150542F32
:102E9000550F550B47FF21C08C2D9B2D60917D0454
:102EA00021E0620F08F46FEF0E947307AC0160919C
:102EB0007A0470917B0480917C040E946F080E94C8
:102EC000E906472F282F8D819E810E9497088D81CA
:102ED0009E8101968D839E83CACFFA01E75BFC4FEA
:102EE000818982130AC0FA01EE0FFF1FE75BFC4FD6
:102EF000818D928D8E159F0588F241505109CACF60
:102F00003090490321E0332D321B08F430E0532E7A
:102F1000809106010E94BD089B8390E08F831886F4
:102F2000880F991F875D9E4F6C015D821E828B8189
:102F30009F81981708F012CEEF81F885E355FE4F78
:102F40008081909107018923F9F080917A048A8326
:102F500020907B0480917C048C838D819E81865B94
:102F60009C4F3C01452C19824314B8F06C81898137
:102F70000E946B076A81722D0E94E906472F282F55
:102F80008F8198850E9497088F81988501968F83FD
:102F9000988782E0C80ED11CCACFF30181913F010E
:102FA000F601A0A8A81ABB0881A8F3018781881A96
:102FB0009908AA9C9001AB9C300D300D1124889C7F
:102FC000C001899C900D900D1124820F931F0E94C7
:102FD0008007082F60917D0421E0620F08F46FEFF5
:102FE000F301EE0FFF1FE954F340858996890E9493
:102FF00073077C019401A5016A81722D89810E9469
:103000007C086A83272E89834394AECF9091450331
:10301000A0914603B0914703892F9A2FAB2FA69515
:1030200097958795A69597958795837090E0A0E0F2
:10303000B0E082309105A105B105B1F08330910572
:10304000A105B105A1F040E060E0109790408140FB
:1030500081F464E180E00E94BB0882E080931B0160
:103060006096E2E10C94CA2644E160E0F3CF44E1CB
:1030700064E184E1F0CF48E050E067E170E089E787
:1030800094E00E94552610924803089581E18093B0
:10309000790480911C0190911D01A0911E018093E3
:1030A0007A0490937B04A0937C048FE780937D0443
:1030B0008FEF80937E04DFCF4F925F926F927F926B
:1030C0008F929F92AF92BF92CF92DF92EF92FF9238
:1030D000C0901903D0901A03E0901B03F0901C03DA
:1030E0000E94CB0B4B015C01CB01D5018C199D09D2
:1030F0002C010E94CB0BAB01BC01409319035093F0
:103100001A0380931B0370931C03A091A603E6EAA5
:10311000F3E08A2F90E02FEFC20ED21EE11CF11CCB
:10312000C818D908EA08FB08A91331C08093A60380
:1031300080911D0390911B01923009F449C0B8F5AC
:10314000911144C0109206014093440350934503EB
:10315000609346037093470389E2E6EAF3E0A9E44B
:10316000B3E001900D928A95E1F78091730381118C
:1031700008C080917904982F937019F086958695F0
:10318000982F90931D0381E080931B0112C0218D25
:10319000328DC216D306E104F10420F481509F5F02
:1031A0003296C2CF240D351D218F328FF8CF933048
:1031B000D1F0FF90EF90DF90CF90BF90AF909F90B5
:1031C0008F907F906F905F904F900895E2D9F1CFEC
:1031D00080931601809179048370809315010E9479
:1031E000210D83E0D1CF80914803811144DFC0904D
:1031F0004403D0904503E0904603F09047030E94BB
:10320000CB0BDC01CB018C199D09AE09BF0940979E
:10321000A105B10570F210921B01CBCFFF920F9365
:103220001F93CF93DF93C62FD42FF22E8115B1F0C9
:10323000609377040E94E00A8093990290939A0227
:1032400081E0C1FD84E0C0FD880FC2FD82950E942F
:10325000C40ECDB7DEB7E5E00C94D7268091770495
:1032600068133CC00091990210919A020E94E00AF2
:10327000801B910B883C910588F51D2F105ECD17A2
:10328000A1F0C77001E0802F01C0880FCA95EAF74E
:103290000E94CD0E183048F48D2F877001C0000FAA
:1032A0008A95EAF7802F0E94C40E8F2D0E94340E5B
:1032B0008FE99FE00197F1F700C000008F2D0E9479
:1032C000980E81E0D1FD84E0D0FD880FD2FD82957B
:1032D000183008F0BECF0E94CD0EBBCF81E0C1FDFB
:1032E00084E0C0FD880FC2FD8295F5CFA0E0B0E07C
:1032F000ECE7F9E10C94B8267C01FC01848181158E
:1033000021F161E0C7010E948106EC01F70185818E
:10331000FE01E851FC47E730F10598F5ED5BF84D0B
:103320000C94C22526E241EE61EE78DF809188049C
:10333000877059F0F7018581811539F080918A04F1
:1033400082FF03C082E00E940704CDB7DEB7E8E049
:103350000C94D42627E245EE65EEE7CF26E241EE57
:1033600060EEE3CF27E245EE64EEDFCF26E241EEEA
:1033700062EEDBCF27E245EE66EED7CF28E241E0F2
:10338000EBCF811509F4EBC3109277049E013057FF
:103390002332310508F0F1C384E090E00E9450260A
:1033A0008093890490938A04FE01E150F047E23251
:1033B000F10520F4E65BF84D0C94C2258091890458
:1033C0008160809389046091890470918A0484E00B
:1033D00090E00E947E260E94D30EA8CF80918A049E
:1033E000886080938A04EFCF809189048260E9CF5E
:1033F000809189048460E5CF809189048860E1CF61
:1034000080918A048160EDCF80918A048260E9CF47
:10341000809189048061D5CF809189048062D1CF69
:10342000809189048064CDCF0E94D30E809189045D
:103430008068C7CF809189048C60C3CF80918A0453
:103440008360CFCF809189048E7FBBCF80918A0427
:10345000877FC7CF809189048D7FB3CF8091890406
:103460008B7FAFCF80918904877FABCF80918A0417
:103470008E7FB7CF80918A048D7FB3CF80918904EE
:103480008F7E9FCF809189048F7D9BCF809189040F
:103490008F7B97CF0E94D30E809189048F7791CF35
:1034A00080918904837F8DCF80918A048C7F99CF0E
:1034B00090918904892F8B7F92FF8460877F92FF90
:1034C00088607FCF80918A04982F909590FB80F937
:1034D00090FB81F986CF90918904892F8F7B96FF8D
:1034E00080646FCF0E94D30E90918904892F97FB3F
:1034F00087F9805866CF61E08EE090E00E946426F4
:1035000062CF60E0F9CF90918904892F8F7E94FF7C
:10351000806157CF90918904892F8E7F90FF8160C1
:1035200050CF90918A04892F877F93FF886059CF6D
:1035300089E220C39272FE01E052F847EB30F105B8
:1035400008F06AC0E459F84D0C94C22590918104AA
:103550009272FE01E054F847EF30F10508F05CC0CC
:10356000E958F84D0C94C2250E940609DFCE91154A
:1035700091F10E942B09DACE911591F10E944A092E
:10358000D5CE911591F10E945D09D0CE911591F1A2
:103590000E947309CBCE911591F10E948709C6CE86
:1035A00080917904837011F410921B018091790449
:1035B0008C7F8160809379040E949108B7CE8091BE
:1035C0007904837011F010921B01809179048C7F33
:1035D000F1CF911571F20E942209A8CE911571F2D6
:1035E0000E944209A3CE911571F20E9452099ECE0B
:1035F000911571F20E94680999CE911571F20E949D
:103600007E0994CE911529F00E949E098FCE9115C6
:10361000D9F30E9490098ACE9E01205E3245203265
:103620003105A0F4811124C08C2F8F71C1E0D0E04E
:1036300002C0CC0FDD1F8A95E2F76C2F83E090E08B
:103640000E946426CE010E944E0370CE811581F146
:10365000CB359CE7D90711F1CC359CE7D90799F018
:10366000CA359CE7D907C1F0C1309CE7D907F1F012
:10367000C3309CE7D907A1F0C115DC47C9F40E940B
:10368000D30E0E94470D80918A04002482FF039488
:10369000802D0E94C70D4ACE81E0FBCF80E0F9CF9C
:1036A0006FEF7FEF80E090E00E947E260E94FD0E8B
:1036B000F70100811181811509F445C0C8010E94FC
:1036C0004D06C82F682FC8010E947603B8018C2FC1
:1036D0000E944C040E946105D82FC92FF701D580A4
:1036E000068102950F7080918804877001F1CD2CBE
:1036F000D114F1F0892F807F803461F08D2F805EAE
:103700008830A8F0892F807E803221F4D23078F082
:10371000011569F080918A0482FF09C082E00E944D
:103720000704809188048770CC24C3948111C12C34
:10373000EC2FE295EF70C03C08F06AC0F0E0EA5769
:10374000F84D0C94C225C8010E94AB03C82FBECF10
:103750001C2F1F70C03110F01295107FD114B9F0DA
:10376000111569F08D2F805E883010F0D11109C0DD
:1037700080918104812B809381040E94DE0D8D2F26
:103780003FC080918B04812B80938B04F6CF8D2FCB
:103790000E94980E1115E1F18D2F805E883010F097
:1037A000D11104C0812F0E94440406C0109580915D
:1037B0008B04812380938B040E94DE0D29C01C2F73
:1037C0001F70C07FC03211F01295107FD13040F0D1
:1037D00009F463C0D11409F46DC00115A9F1CFCF6C
:1037E00080918A0482FD2CC0D11469F0111539F042
:1037F00080918104812B809381040E94DE0D80E002
:103800000E94340E05C080E00E94980E1111CACFAC
:10381000C11409F4BDC08091880480FDB9C0F701CE
:1038200015828695869586950E945803C7015EDDB0
:10383000809188048695869586950E946603A8C027
:10384000D11489F0013020F4812F0E94C40EE0CF02
:10385000F9F680918204912F98231917C9F2812BD0
:1038600080938204D5CF0111D3CF812F0E94CD0E3A
:1038700090918204812F892329F0812F80958923BB
:103880008093820480918304912F982309F4C0CF00
:103890001095182310938304BBCFD11421F0063068
:1038A00008F0B6CFD1CF053008F0B2CF812F0E94FB
:1038B000CD0EAECF0115D1F3D93369F48FEF97EE6A
:1038C00023E0815090402040E1F700C000008D2FA0
:1038D0000E94980E9DCF8FE99FE00197F1F7F5CFF9
:1038E0008C2F869586958370813060F009F090CF9B
:1038F0008D2F9C2F9370D11002C080E090E00E9429
:103900005A0A86CF8D2F9C2F9370D11002C080E071
:1039100090E00E94330A7CCF6D2D8D2F0E94140BF6
:1039200077CF8C2F837009F046C0D1102FC04D2F58
:10393000429546954770440F440F2D2F2F7030E06D
:10394000042E02C0220F331F0A94E2F780E090E0B9
:10395000D4FF09C08FE090E002C0880F991F4A95FC
:10396000E2F780959095C695C695C370C230D1F0A8
:10397000C330A9F04091840450918504C13069F0AE
:10398000822B932B842395230E944E030E94240AAA
:1039900060E0C7010E948106D8CC242B352B822BF6
:1039A000932BF2CF822B932B2091840430918504AA
:1039B00082279327E9CFD11491F1C0FFE7CF4D2F94
:1039C000429546954770440F440F2D2F2F7030E0DD
:1039D000042E02C0220F331F0A94E2F780E090E029
:1039E000D4FF09C08FE090E002C0880F991F4A956C
:1039F000E2F780959095C695C695C370C230B9F030
:103A0000C33091F04091860450918704C13051F049
:103A1000822B932B842395230E945303B7CF8230AC
:103A200070F6B4CF242B352B822B932BF5CF822B22
:103A3000932B209186043091870482279327ECCF23
:103A4000CF70D11439F08C2F0E9458038D2F0E9413
:103A5000C40E9CCF8D2F0E94CD0E8C2F0E9466032A
:103A600095CFD23F99F170F4D03FC9F0D13F91F09A
:103A7000D11409F45BC0011509F455C08D2F0E94C3
:103A8000340E84CFD33F49F1D43F91F790918A040B
:103A900092FD31C08C2F8F71D11401F31BC0D11452
:103AA00099F0053008F072CFCF7181E090E002C04C
:103AB000880F991FCA95E2F7EC01809186049091D6
:103AC00087048C279D27A8CF0630ECCF8C2F8F71D1
:103AD000D110C4CF0E94580359CF80E090E0D11498
:103AE00009F49ACFCF7181E090E002C0880F991F4E
:103AF000CA95E2F791CFD11461F08C2F8F7192FFAC
:103B0000E9CF982F990F990F990F9360909388049C
:103B1000E1CF81E00E940704023008F437CF82E051
:103B20000E94070433CF8C2F8F71D4CF0115A1F0E1
:103B3000D93369F48FEF97EE23E081509040204015
:103B4000E1F700C000008D2F0E94980E1FCF8FE973
:103B50009FE00197F1F7F5CF8C2F8F717FCFC631A2
:103B60009CE7D90709F0F2CC80917804811509F41B
:103B7000DFCC85E30E94B50A14C090918104C63160
:103B80002CE7D20709F0D6CC9A7A81E0911101C0D6
:103B900080E08093780485E3911101C089E20E945E
:103BA000810A0E94DE0DC2CB8091CC04803170F47A
:103BB0008091CB04811551F0E0918D0420918C040B
:103BC0003091C7044091C6042E1301C00895BF016F
:103BD00087E0E89FF0011124DF01A257BB4F149644
:103BE0008C911497811551F111968C911197831333
:103BF00025C08C91841322C015968C911597811144
:103C00001DC012968D919D91A091C804B091C904D8
:103C10008A1B9B0B883C910588F48091CC048F70A3
:103C200080618093CC04EC56FB4F80818F70806163
:103C3000808386EC94E05ADB0C94FD036F5F7F4F2A
:103C4000FB01E770C1CFADE0B0E0E9E2FEE10C942A
:103C5000B3268C0186E0F801DE01189601900D92E2
:103C60008A95E1F7F801F580C48086EC882E84E01F
:103C7000982E7090CA0471101FC0C114D1F0F114B5
:103C800009F415C1C8010E94A606811509F40FC1E7
:103C900087E0F801D40101900D928A95E1F78C2D0F
:103CA000813031F48091C6049091C7040E949C0633
:103CB0007BDFFF24F39453C0E080A280B380D090D8
:103CC000CB048091C8049091C9049501281B390B3D
:103CD000D11409F4B5C0283C310508F08DC0C114D9
:103CE00041F39091C704C1808091CC04803108F0E9
:103CF00056C0C91213C09091C6049E110FC0F11096
:103D000048C08F7080618093CC0486EC94E0EEDA3A
:103D10008091CC04F8018683F12C21C0F11039C0C8
:103D200040E06C2D8E2D0E94DE0340E06C2D8E2D28
:103D30000E94DE03F82E8111EFCF888599850E94BD
:103D40009C06292F22952F70903470F49F7022309A
:103D500098F09115A9F0F8019681903188F48F2D93
:103D60002D96EDE00C94CF262A5F2F70223060F064
:103D7000C801BCDAFD2CF3CF911511F0811579F350
:103D8000805E883060F3F4CF803F48F3815F8330FA
:103D9000F9CF8091CC0481608093CC04BDCFC9124F
:103DA00007C09091C6049E1103C0F11409F469C0C4
:103DB000C8010E94A606811509F479C0F11409F41E
:103DC00076C08091CC04803270F02091C60430918E
:103DD000C70429833A83AB82BC827D821E828F8393
:103DE000CE01019683DA87E0F801A6ECB4E00190F9
:103DF0000D928A95E1F75CCF8091CC04803148F434
:103E000086EC94E073DAF40187E011928A95E9F781
:103E100083CFC11409F44DCF2091C7049181291398
:103E2000C7CF9091C6049E11C3CFF110C1CF868336
:103E3000C8015CDAF40187E011928A95E9F739CF7D
:103E4000283C310500F7C11409F433CFF11479F19E
:103E50009091C7048181981320C08091C6048E116F
:103E60001CC08091CC0480FD0FC0803168F0868337
:103E7000807F803F39F08681982F907F905F8F7090
:103E8000892B8683C80132DA87E0F801A6ECB4E01A
:103E900001900D928A95E1F70CCFC8010E94A60609
:103EA0008111A1CF8091CC0481608093CC04C801A2
:103EB0001DDAFFCEABE1B0E0EFE5FFE15DC74E8B71
:103EC0005F8B688F798F8A8F192F9B8F911110923A
:103ED0008B041D8A86E0FE017696DE011F96019016
:103EE0000D928A95E1F70A8D011561F00B8B1C8B01
:103EF00061E0CE010F960E94810661E0CE010F962F
:103F00000E9481060B8B1C8B87E0FE013F96DE0131
:103F1000189601900D928A95E1F7CE01089693DEEE
:103F200081112EC020918C0430918D0487E0AE0168
:103F3000485F5F4FFA0147505109DA0101900D9235
:103F40008A95E1F78C858115D9F0822F90E08395D1
:103F5000877090E0AC0134171506D9F097E0929F76
:103F6000D0011124A257BB4F9E012F5F3F4FF90193
:103F700001900D929A95E1F740938C040E94FD0305
:103F800080918D0490918C04891310C06B96E4E0AD
:103F90000FC70E94D30E10928C0410928D04E6EC91
:103FA000F4E087E011928A95E9F7EACF27E0829F53
:103FB000C001112482579B4F46DE811539F3809151
:103FC0008D0490918E040196877080938D04D8CFD4
:103FD000A6E0B0E0EDEEFFE1CFC60E94E00A8C0162
:103FE00080912A0490912B048017910771F0198217
:103FF0001A820E94E00ABC0149815A8180E090E067
:1040000059DF00932A0410932B042696E4E0D0C6CF
:10401000CDB7DEB76F970FB6F894DEBF0FBECDBF3A
:1040200085B7806885BF85B7806885BF84B7877F7F
:1040300084BF0FB6F894A895809160008861809342
:104040006000109260000FBE80E890E00FB6F89418
:1040500080936100909361000FBE81E080931A010C
:1040600081ED96E080935402909355020E94030DD7
:104070000E94B40C8091E20084608093E200789406
:1040800080917503811599F08091E9001091EC0001
:104090008F7010FB112717F9182B1092E9008091EF
:1040A000E80083FD0E94090F1F701093E90082E071
:1040B00084BD93E095BD9AEF97BD80936E00B7EDF8
:1040C000CB2EB1E0DB2E03EE11E0F60181916F0102
:1040D0008F3F11F00E94D3060C151D05B1F7A3EE1A
:1040E000CA2EA1E0DA2E07EE11E0F60181916F01F0
:1040F0008F3F11F00E94D3060C151D05B1F7EAE1C0
:10410000F4E088E011928A95E9F7E2E2F4E088E0D1
:1041100011928A95E9F780E090E0C2D5833E9E4FE8
:1041200039F163EE7EEF80E090E0E8D560E082E078
:1041300090E0CAD581E090E08093840410928504D9
:1041400061E083E0C1D560E074E184E090E0D6D521
:104150000E94461860E070E0AB018FE090E0C6D5A9
:1041600060E070E0AB0183E190E0C0D50E943B18B5
:1041700082E090E08DD58093D70384E090E090D5E5
:104180008093890490938A040E94AC118FEF99EF79
:1041900020E0815090402040E1F700C000000E94E4
:1041A000AC1180911A0480FF07C06FEF7FEF80E0B1
:1041B00090E0A4D50E94470D83E090E069D590E09F
:1041C0000E944E030E94AC091092490340E150E066
:1041D0006FEF70E082E693E044D51092A60340E1D1
:1041E00050E06FEF70E08FEB93E03BD581E0809380
:1041F000480348E050E067E170E089E794E038D593
:104200001092480380917904843010F40E9446187B
:104210008BE091E080934C0490934D04CE01019685
:104220008F8B988F809175038530C1F4FF24F394B0
:1042300068E1C62ED12C73E0B72E02E214E0E0E173
:10424000AE2EF2E19F2E80917503853009F45EC198
:104250000E94D30E0E94240A109273030E94AC1194
:1042600088ED93E08A8B9B8B8AE194E08C8B9D8B0D
:10427000FC01A8EDB3E02D913D918081918140EE4C
:1042800053E04A175B0709F4AEC132962817390785
:1042900091F38FEC93E08887998786E793E08E8788
:1042A0009F8789E291E0888B998B1F82EC89FD8939
:1042B000E190F190EC8BFD8BEA89FB8981919191E2
:1042C000EA8BFB8B8E159F0509F407C18E259F2570
:1042D000898F9A8F8E859F858C879D8788899989FC
:1042E0008A879B87612C712C23014394898D9A8D39
:1042F00084219521892B09F4D8C06B8E4701842035
:10430000952041E0C42ED12C062C02C0CC0CDD1C23
:104310000A94E2F7E885F985808191818C219D21BD
:10432000892BA9F469828F818A830E94E00A8B839A
:104330009C8381E08D8391E08114910409F490E0E5
:104340009E8349815A816B817C818D81B3DD81148B
:10435000910431F0EA85FB8580818F3F09F023C20B
:10436000312C032D10E08091A603830D9927991F0E
:1043700009974CF198E0A92EB12CA01AB10AB80106
:1043800069557C4FA50187EA93E062D4B801615575
:104390007C4FA5018FEA93E05BD4A501440F551F24
:1043A000B801660F771F61547C4F8FEB93E050D4B8
:1043B000B80169547C4FA50187EB93E049D488E0AC
:1043C00083198093A603311421F14091A6038E89AD
:1043D00090E0242F30E0F901EA55FC4FDC01AA0FF0
:1043E000BB1FA75ABE4F5C915183880F991F875DF1
:1043F0009E4FDC01D1968C9181878E89818B220F13
:10440000331FF901EA55FC4F118E128E4F5F409316
:10441000A603892809F404C2809179048C7F8C3228
:1044200009F043C0EA85FB8580818F3F09F43DC0D8
:1044300046E7A42E43E0B42E59E2C52E51E0D52E16
:10444000212C90E09C01220F331F275A3E4F2C8FC6
:104450003D8F880F991F865A9E4F8E8F9F8F8501A3
:104460004601312CF40181914F018F3F71F09F8102
:1044700029129DC19B8D93119AC1EC85FD852081E8
:1044800030E2230F08F42FEF208333940F5F1F4F88
:10449000832D8C3039F723948CE0C80ED11C8CE02E
:1044A000A80EB11C822D8430D1F6440C551C8FEF20
:1044B000681A780A8A859B8501968A879B878C85EE
:1044C0009D8501968C879D878CE06816710409F0A4
:1044D0000DCFEA89FB89F292E2928F818F5F8F8301
:1044E000888999890C96888B998B8E859F850C96E7
:1044F0008E879F87888599850296888799878F817F
:10450000843009F0D3CE0E94CB0B72C0809175032A
:10451000843009F437C00E945C18809173038111C4
:104520000DC00E94C9121092160180917904837007
:10453000809315010E94210DB0921B01F09273032C
:104540001092720380E40FB6F894A895C0926000B0
:104550000FBE8093600083B7817F846083BF83B781
:10456000816083BF7894889583B78E7F83BF0FB6B1
:10457000F894A89580916000886180936000109203
:1045800060000FBE0E94AC11EAE1F4E0AFECB3E0D2
:1045900080E0219131912D933D9391E0232B09F4FB
:1045A00090E0892B0E171F07A1F7811509F44BCE58
:1045B00080917403811509F446CEA9BC99BC09B455
:1045C00000FEFDCF8091D8008F7D8093D800809130
:1045D000E00082608093E0008091E00081FDFCCFEC
:1045E0000E94D30E30CE2817390709F052CEF0DCE6
:1045F0000E945C1886E0E1E7F4E0AF89B88D019095
:104600000D928A95E1F7A0907204009173041091C5
:104610007404B0907504F0907604109273041092B4
:1046200074041092750410927604812F802B09F483
:1046300041C0C090E203D090E3030E94E00A8C19CD
:104640009D099C0190916F04911509F4F9C02531E1
:10465000310580F19F3F19F09F5F90936F04011522
:1046600059F00E94DF0991E010160CF09FEF899F2E
:10467000802D112480937304111559F00E94DF09D5
:1046800091E011160CF09FEF899F802D11248093EB
:10469000740480917304811569F0D0907404D1146E
:1046A00049F00E94D109809373048D2D0E94D10995
:1046B000809374048B2D8F2909F441C0C090E003CE
:1046C000D090E1030E94E00A8C199D099C01909111
:1046D0006E04911509F4AFC02135310580F19F3F7B
:1046E00019F09F5F90936E04B11459F00E94FF0976
:1046F00091E01B140CF09FEF899F802D1124809373
:104700007504F11459F00E94FF0991E01F140CF098
:104710009FEF899F802D11248093760480917504EA
:10472000811569F0D0907604D11449F00E94D10926
:10473000809375048D2D0E94D10980937604809119
:1047400072048A1119C080917304811511F0081345
:1047500013C020917404211511F012130DC0909113
:104760007604911511F09F1107C030917504311135
:1047700003C0822B892B11F00E94EC0A86E0EF899E
:10478000F88DA1E7B4E001900D928A95E1F70E94BF
:10479000240A9091E403891709F444CD8093E4033B
:1047A0000E94CB0B3FCD8E8B33243394DACD90E037
:1047B000EC8DFD8D4081FC01EE0FFF1FE75AFE4F8F
:1047C0002081421B550BEE8DFF8D2081880F991F94
:1047D000875D9E4FFC0181A9281B330B449FB001CC
:1047E000459F700D700D1124229FC001239F900DD5
:1047F000900D1124860F971F0E948007893208F0C0
:1048000044CE28E2382F231B08F420E0213108F0A1
:1048100020E1F8013081320F08F43FEF308335CECC
:10482000C094D094E885F985808191818C219D2167
:10483000808391833ACE2B30310508F052CF7FCF61
:104840002B30310508F008CF35CF1F921FB61F92CD
:1048500011248F939F93AF93BF9380917203811123
:1048600013C08091910290919202A0919302B09115
:1048700094024196A11DB11D8093910290939202E2
:10488000A0939302B0939402BF91AF919F918F91A7
:104890001F901FBE1F90189578941F921FB61F92ED
:1048A00011248F939F93AF93BF9380919102909126
:1048B0009202A0919302B09194020196A11DB11DA4
:1048C0008093910290939202A0939302B0939402EA
:1048D000BF91AF919F918F911F901FBE1F90189510
:1048E0001F920F920FB60F9211242F933F934F9365
:1048F0005F936F937F938F939F93AF93BF93EF9348
:10490000FF938091E10082FF09C08091E20082FF65
:1049100005C08091E1008B7F8093E1008091DA00F7
:1049200080FF24C08091D80080FF20C08091DA00F1
:104930008E7F8093DA008091D90080FFA9C080E14A
:1049400089BD82E189BD09B400FEFDCF81E080937D
:10495000750380918002811109C00E94030D0E949D
:10496000B40C8091E20084608093E2008091E100C9
:1049700080FF1AC08091E20080FF16C08091E200A3
:104980008E7F8093E2008091E20080618093E2005C
:104990008091D80080628093D80019BC85E0809314
:1049A000750383E080931A018091E10084FF2FC09A
:1049B0008091E20084FF2BC080E189BD82E189BD46
:1049C00009B400FEFDCF8091D8008F7D8093D80080
:1049D0008091E1008F7E8093E1008091E2008F7EE4
:1049E0008093E2008091E20081608093E2008091F8
:1049F0007F02811509F452C084E080937503809191
:104A00007503843009F052C082E080931A018091CE
:104A1000E10083FF2CC08091E20083FF28C08091D9
:104A2000E100877F8093E10082E08093750310921C
:104A30007F028091E1008E7F8093E1008091E2000F
:104A40008E7F8093E2008091E20080618093E2009B
:104A500042E060E080E00E94340C8091F0008860C9
:104A60008093F00081E080931A0180931901FF91F7
:104A7000EF91BF91AF919F918F917F916F915F91D6
:104A80004F913F912F910F900FBE0F901F9018954F
:104A900019BC109275031092800268CF8091E300D8
:104AA00087FF02C083E0A9CF81E0A7CF81E0ADCF2F
:104AB0001F920F920FB60F9211241F932F933F93C3
:104AC0004F935F936F937F938F939F93AF93BF9316
:104AD000CF93DF93EF93FF93E9EEF0E080811091A5
:104AE000EC008F7010FB112717F9182B1082C0EF04
:104AF000D0E08881877F888378940E94090FE9EE4F
:104B0000F0E010828881886088831F701083FF9195
:104B1000EF91DF91CF91BF91AF919F918F917F9155
:104B20006F915F914F913F912F911F910F900FBE09
:104B30000F901F901895AA1BBB1B51E107C0AA1F1D
:104B4000BB1FA617B70710F0A61BB70B881F991F2E
:104B50005A95A9F780959095BC01CD01089597FBD2
:104B6000072E16F4009406D077FD08D0E4DF07FC8A
:104B700005D03EF4909581959F4F0895709561956D
:104B80007F4F0895EE0FFF1F0590F491E02D0994DB
:104B9000AAE0B0E0EDECF5E2F1C089879A87FC016C
:104BA000608171818281938100977040604021F41F
:104BB00064E279ED8BE597E02DE133EF41E050E0E1
:104BC000A1D029833A834B835C839B01AC01A7EA84
:104BD000B1E4B4D06D837E838F839887ACEEB4EF5D
:104BE00029813A814B815C81B5D02D813E814F81F5
:104BF0005885260F371F481F591FC901DA01B7FF13
:104C000003C00197A109B048E985FA8580839183A3
:104C1000A283B3839F772A96E2E0CCC0B9CF80E02D
:104C200091E0B6CF809300019093010110920201B0
:104C3000109203010895FB01DC0104C08D910190E5
:104C4000801921F441505040C8F7881B990B0895F2
:104C5000FB01DC0102C001900D9241505040D8F799
:104C60000895DC0101C06D9341505040E0F7089574
:104C7000DC01CB01FC01F999FECF06C0F2BDE1BD1C
:104C8000F89A319600B40D9241505040B8F708950B
:104C9000F999FECF92BD81BDF89A992780B5089504
:104CA000A8E1B0E042E050E0E5CFDC01A40FB51F81
:104CB0004150504040F0CB01840F951F2E9105D0FC
:104CC00041505040D8F70895262FF999FECF92BD54
:104CD00081BDF89A019700B4021639F01FBA20BDC1
:104CE0000FB6F894FA9AF99A0FBE08950396272FF3
:104CF000ECDFEADF252FE9DF242FE7CF0196272F0E
:104D0000E4DFE2CF052E97FB16F400940FD057FD99
:104D100005D06AD007FC02D046F408C050954095F3
:104D2000309521953F4F4F4F5F4F08959095809557
:104D3000709561957F4F8F4F9F4F089546D0A59FE7
:104D4000900DB49F900DA49F800D911D1124089586
:104D5000B7FFF4CFF3DF821B930B08952F923F929E
:104D60004F925F926F927F928F929F92AF92BF927B
:104D7000CF92DF92EF92FF920F931F93CF93DF9327
:104D8000CDB7DEB7CA1BDB0B0FB6F894DEBF0FBE84
:104D9000CDBF09942A88398848885F846E847D84D1
:104DA0008C849B84AA84B984C884DF80EE80FD80D3
:104DB0000C811B81AA81B981CE0FD11D0FB6F89449
:104DC000DEBF0FBECDBFED010895A29FB001B39F1E
:104DD000C001A39F700D811D1124911DB29F700D04
:104DE000811D1124911D0895A1E21A2EAA1BBB1B3F
:104DF000FD010DC0AA1FBB1FEE1FFF1FA217B307A7
:104E0000E407F50720F0A21BB30BE40BF50B661FBC
:104E1000771F881F991F1A9469F760957095809580
:104E200090959B01AC01BD01CF010895F894FFCF8F
:104E3000200B250B270B2C0B3C0B3C0B3C0B3C0B92
:104E40003C0B3C0B3C0B3C0B2E0B320B350B3A0B4B
:104E5000490B4F0B530BE60F0C1012100C101210D5
:104E600060108210121072117F110A133B1351133C
:104E7000541357135A13B61300144E14DB14B515FC
:104E80004D161D178017AE19B2199219AA19B61925
:104E9000BA19BE19221A8A1A2A1AF419F8192E1ADE
:104EA000FC19321A3E1A081A831A0C1A421A101ADE
:104EB000461A6B1A141A4A1A721A1A1A501A581ADF
:104EC000001A361A041A3A1A1E1A541A621A7B1A4F
:104ED000811AEE19261A911AB41AB71AE91ABC1ACD
:104EE000EE1AC11AF31AC61AF81ACB1AFD1AD01AFA
:104EF000DF1AB41AB71AE91ABC1AEE1AC11AF31A51
:104F0000C61AF81ACB1AFD1A021B071BA81BA81BEE
:104F1000DF1BDF1B701C8C1C081C081C911C201D37
:044F2000311D311DF1
:104F2400010000002B0000FF003905DD0AA50DB8C3
:104F34000DBD0DC20DFFFF000001000300FFAAFF1D
:104F440000003131295A1B750A0C0B08070403248D
:104F540025262728290D0A09060502232221201FB8
:104F64001E0E0F1011120118191A1B1C1DFFFFFF32
:104F7400131415001617FFFFFF70205C245E1961DF
:104F84000E500D4D183E12400831062E111C171EEE
:104F94000D0E0B0B1608201A222B1C3D1D4C224E05
:104FA4002E613170387F31922E84249422A41DB452
:104FB4001CC622D720D416C417B211A1129218828B
:104FC400197E0E8F0D9F08AF06C20DD20B04040488
:104FD400040404040404040404040404040404048D
:104FE400040404040404040404040404040404047D
:104FF40004040404040404663635349796F0F1F48A
:10500400F5F6F767959392E200E900EA00B500B679
:1050140000B700CD008301CC008A019201940121E4
:1050240002230224022502260227022A02B300B424
:10503400006F0070009F01CB019F02A002E200E913
:1050440000EA00B500B600B700CD008301CC008AA9
:10505400019201940121022302240225022602273F
:10506400022A02B300B4006F0070009F01CB019FBD
:0450740002A0020094
:00000001FF
