:100000000C9414030C944C030C944C030C944C036C
:100010000C944C030C944C030C944C030C944C0324
:100020000C944C030C944C030C941C210C94D8207D
:100030000C9427220C944C030C944C030C944C030A
:100040000C944C030C944C030C944C030C944C03F4
:100050000C944C030C9403220C944C030C944C030E
:100060000C944C030C944C030C944C030C944C03D4
:100070000C944C030C944C030C944C030C944C03C4
:100080000C944C030C944C030C944C030C944C03B4
:100090000C944C030C944C030C944C030C944C03A4
:1000A0000C944C030C944C030C944C032B00140044
:1000B0001A000800150017001C0018000C001200A0
:1000C00013002F00294204281624072109220A00C0
:1000D0000B000D320E310F2433383442E2001D0084
:1000E0001B00060019000500110010003600370043
:1000F0002D00E60000000000000029472A462843A2
:100100004C442C4629470000000000002B000D0045
:100110000700180004001B0013000B000F00100064
:100120001A002D002942062817240C21082212004B
:1001300005001132153116240A381442E200090074
:1001400019002F00340033001D001C00360037005A
:100150000E00E60000000000000029472A46284360
:100160004C442C462947000000000000010001001B
:1001700038022514261435001E026400640227028A
:100180002302010001002D1424022414271430023C
:100190002D02250226023800370214140100310016
:1001A0002102641430142E02300022021F02320297
:1001B0003602010000000000000001000100010003
:1001C0004C000100010000000000000044003A0063
:1001D0003B003C003D003E003F004000410042002B
:1001E00043004500E00048004900AA00A900A8001B
:1001F0004A004E004B004D006500E4000100A600DF
:10020000A500AC00AB00AE000100BE00BD00460082
:10021000A7000100000000000000390001000100FB
:100220000100010039000000000000000000000093
:1002300000000000000000002C782878277826783D
:100240002578000000000000000000000000000011
:10025000207821782278247823780000000000009C
:1002600000000000000000002B782A7829780000A8
:100270000000000000000000000000000000255207
:10028000000000000000000000000000007C0000F2
:10029000000000000000000000000000000000005E
:1002A0000000000000004052415200000000000029
:1002B000000000000000000000000000000000003E
:1002C000000000000000000000000000000000002E
:1002D0000000037C0000000000000000000000009F
:1002E00000000000000000000000000000004B00C3
:1002F0002A0052004C004E00550024002500260024
:100300003000380000004A00500051004F004D00FE
:10031000540021002200230036003700000029008D
:100320002B00490028007A0037021E001F00200021
:10033000360258000000000000000000000000002D
:1003400000002B002700000000000000000000005B
:10035000DD00DE00DF0000000000DA00CD00D90083
:10036000DC000000000000000000000000000000B1
:10037000DB00CF00CE00D000000000000000000035
:1003800000000000000000000000D300D400D500F1
:10039000000000000000000000000000000000005D
:1003A0000000D100D20000000000000000010101A7
:1003B0000101010101010202020202020202020322
:1003C00003030303030303040404040404040505F2
:1003D00005050506060606060707070707080808B5
:1003E00008090909090A0A0A0B0B0B0C0C0C0D0D64
:1003F0000D0E0E0E0F0F0F101011111112121313FC
:100400001414151516161717181819191A1A1B1B74
:100410001C1D1D1E1E1F20202122222324242526D0
:1004200026272829292A2B2C2D2D2E2F3031323208
:10043000333435363738393A3B3C3D3E3F40414214
:10044000434445464748494A4C4D4E4F50515354FA
:10045000555658595A5B5D5E5F61626465666869AE
:100460006B6C6D6F7072737577787A7B7D7E80822E
:10047000838587888A8C8E8F91939596989A9C9E77
:10048000A0A2A3A5A7A9ABADAFB1B3B5B7BABCBE87
:10049000C0C2C4C6C9CBCDCFD1D4D6D8DBDDDFE254
:1004A000E4E7E9EBEEF0F3F5F8FAFDFF05010902E8
:1004B000A10185020901A1000509190129081500FA
:1004C0002501950875018102050109300931158161
:1004D000257F95027508810609381581257F9501CC
:1004E00075088106050C0A38021581257F9501756E
:1004F000088106C0C005010980A101850319012AF0
:10050000B700150126B700950175108100C0050CD4
:100510000901A101850419012AA002150126A002E2
:10052000950175108100C005010906A10185060528
:100530000719E029E71500250195087501810205D5
:1005400007190029EF1500250195F07501810205B5
:100550000819012905950575019102950175039109
:1005600001C005010906A101050719E029E71500E9
:10057000250195087501810295017508810105071E
:10058000190029FF150026FF009506750881000552
:100590000819012905150025019505750191029598
:1005A0000175039101C009023B00020100A0FA0994
:1005B000040000010301010009211101000122448E
:1005C0000007058103080001090401000103000080
:1005D0000009211101000122B60007058203200055
:1005E000011201000200000008D80473E8010001B4
:1005F0000200010C03410044004D003400320000B1
:100600000020034C006F00720065006E007A006FDE
:100610000020004C0065006F006E0069006E0069EC
:10062000000000040309040011241FBECFEFDAE02C
:10063000DEBFCDBF04B603FE18C08091690490915F
:100640006A04A0916B04B0916C048730904BA74072
:10065000B04B59F41092690410926A0410926B0422
:1006600010926C04E0E0F8E3099524E0A6E2B2E021
:1006700001C01D92A936B207E1F712E0A0E0B1E097
:10068000E6EFF3E502C005900D92A632B107D9F767
:100690000E944E220C9493290C94000090915D04CA
:1006A000937071F080935E0460935F044B3A08F09E
:1006B0004AEA4093600480915C04816080935C040A
:1006C000089590915D04937061F081110BC0946066
:1006D00090935D041092230180915C04816080936B
:1006E0005C0408958F3010F09863F2CF880F880F64
:1006F000982BEECF482F2091540490911B0457E083
:10070000291302C080E0089530E0529FF001539F0A
:10071000F00D1124E45EFB4F8181681306C08081D7
:10072000481303C085818111EECF2F5F3F4F2770A3
:10073000E7CFE8EDF0E080818E7F80831092E200C9
:100740001092DA001092E100A0EEB0E08C9181608E
:100750008C9380818F77808319BCA7EDB0E08C915A
:100760008E7F8C9380818F7E808310920604089503
:100770002091E4003091E50095E6A9012091EC007C
:10078000822F817020FF06C08091E80080FF06C0A4
:1007900080E008952091E80022FD1AC080911104A4
:1007A000882389F0853089F08091EB0085FD0FC0AA
:1007B0002091E4003091E50042175307F9F291507F
:1007C000E1F684E0089582E0089583E0089581E0F1
:1007D00008958091130487FF13C08091E80082FF81
:1007E00006C08091E8008B778093E80004C0809178
:1007F00011048111F2CF0895809111048823D9F357
:100800008091E80080FFF8CF8091E8008E77ECCFF0
:10081000982F9093E900242F762F50E0891731F01C
:100820007091EC002091ED005091F00021FD07C087
:100830009F5F973071F78093E90081E008953091D0
:10084000EB003E7F3093EB003091ED003D7F309325
:10085000ED003091EB0031603093EB007093EC00D1
:100860002093ED005093F0002091EE0027FDE0CFA3
:1008700080E00895B0E0A0E0E0E4F4E00C941427F8
:10088000C8EDD0E088818F7E8883E7EDF0E080813D
:100890008160808384E082BF81E080930604888148
:1008A0008E7F888302EE10E0F80110821092DA0049
:1008B00081EEC82ED12CF601108288818F77888333
:1008C00088818068888388818F7D888319BC109295
:1008D0001104109212041092100410920F0490EE62
:1008E000E92EF12CF70180818B7F808388818160E4
:1008F000888342E060E080E00E940804F601808185
:100900008E7F8083F8018081816080838081886010
:100910008083F70180818E7F8083888180618883D6
:10092000CDB7DEB7E8E00C943027FC0180911904C4
:1009300090911A0486179707A0F06115710529F4A4
:100940009091E8009E779093E80090E06115710522
:1009500051F4911108C08091E80082FF34C080E01A
:100960000895BC01F2CF809111048823C1F1853034
:10097000C1F18091E80083FD30C08091E80082FDE4
:10098000EACF8091E80080FFE1CF8091F3002091D1
:10099000F200382F6115710519F02830310558F033
:1009A00091E02830310509F090E02091E8002E77A1
:1009B0002093E800CBCF81918093F10061507109C1
:1009C0002F5F3F4FE7CF80911104882341F085309E
:1009D00041F08091E80083FFBECF81E0089582E07E
:1009E000089583E008952FB7F89460910204709100
:1009F000030480910404909105042FBF08952FB73C
:100A0000F8948091020490910304A0910404B091A1
:100A100005042FBF089580911D01089590911E0136
:100A20009130D1F49091FF0397FF16C0E82FE6951F
:100A3000E695E695EE31E0F4F0E0E05DFD4F282F1D
:100A4000277081E090E001C0880F2A95EAF7809531
:100A50009281892382830895EAE2F2E091918913D9
:100A600003C0DF0111971C9292E0E033F907B1F760
:100A7000089590911E019130C1F49091FF0397FF6A
:100A800014C0E82FE695E695E695EE31F8F4F0E02F
:100A9000E05DFD4F877021E030E001C0220F8A95B4
:100AA000EAF78281822B82830895AAE2B2E0EFEF17
:100AB00090E02D91821751F0EF3F19F4211101C000
:100AC000E92F9F5F9630A9F7EF3F09F408950E2EA6
:100AD000000CFF0BE85DFD4FE6CFA3E0B0E0E3E7DD
:100AE000F5E00C941A272091FD033091FE0328179E
:100AF0003907A1F09093FE038093FD03E091FB037F
:100B0000F091FC03309751F024E029839B838A8382
:100B10000084F185E02DCE01019609952396E2E04F
:100B20000C943627A3E0B0E0E8E9F5E00C941A272E
:100B30002091F9033091FA0328173907A1F0909317
:100B4000FA038093F903E091FB03F091FC033097E3
:100B500051F023E029839B838A830084F185E02D73
:100B6000CE01019609952396E2E00C943627E09198
:100B7000FB03F091FC03309729F00190F081E02D08
:100B80000995089580E008950E94FF049C019091CA
:100B9000F5038091F603982B21F03093F203209314
:100BA000F1039091F7038091F803982B21F0309393
:100BB000F0032093EF03E091FB03F091FC033097E7
:100BC00049F082E08093F3030680F781E02D83EF04
:100BD00093E0099508958091EE0380FD16C081FD94
:100BE00016C082FD16C08091ED038823A1F08832E3
:100BF00080F428E0829FC001112468E270E00E9426
:100C0000F026862F672B39F0089582E0089584E05E
:100C1000089588E0089581E008958091EE0380FDB5
:100C200014C081FD14C082FD16C08091EC0388239E
:100C300081F08E3180F420E5829FC00111246EE1A5
:100C400070E00E94F026862F089584E1089588E2DE
:100C5000089588E0089580E50895282F35EB230353
:100C6000C001112497FF04C080589109892F08956D
:100C700080589F4FFBCFFC01EE0FFF1FE80FF91FBD
:100C8000E259FC4F6183408322830895EEE6F3E04E
:100C9000818360834283339693E0EC3EF907C1F78A
:100CA0000895279A0895EDE5F4E0248130E1231BAF
:100CB00008F420E0248380915C04816080935C04CC
:100CC0000895EDE5F4E0248130E1230F08F42FEFDF
:100CD000248380915C04816080935C040895EDE539
:100CE000F4E0438120E1421B08F440E0818162810D
:100CF00090E00E944E030895EDE5F4E0438120E189
:100D0000420F08F44FEF8181628190E00E944E0310
:100D10000895EDE5F4E0628128E1621B08F460E0EB
:100D20008181438190E00E944E030895EDE5F4E057
:100D3000628128E1620F08F46FEF8181438190E0C6
:100D40000E944E030895EDE5F4E0818143816281C4
:100D50008850990B0E944E030895EDE5F4E08181DF
:100D600090E04381628108960E944E03089580912D
:100D70005D0486958695815009F48EE00E9461039A
:100D8000089580915D04869586958F5F8F3008F079
:100D900081E00E9461030895EDE5F4E0808191E037
:100DA000892780831092230180915C048160809365
:100DB0005C04089595E1899F802D1124980F9B3242
:100DC00008F09AE20895E42FF0E0EE0FFF1FE858D4
:100DD000FE4F61A9621B0895E42FF0E0EE0FFF1FA4
:100DE000E855FE4F6081621B0895E42FF0E0EE0F9E
:100DF000FF1FE855FE4F408134EE439F412D1124E3
:100E0000E82FF0E050E0445E5F4FDA01A21BB10929
:100E10009D01B7FF03C031952195310993E0220F61
:100E2000331F9A95E1F7AF01421B530B9A0157FD0F
:100E300020E0582F259F212D1124822F08950E94F4
:100E4000460608950E943B060895EF92FF920F9385
:100E50009701201B31092F3F310519F010F02FEFBA
:100E600030E0322F3095482F430F08F44FEF842F96
:100E7000620F0F91FF90EF9008954095282F429FA9
:100E8000412D1124842F08950F93CF93DF93D72FF3
:100E9000C82F2115310529F460E857FD1DC060E019
:100EA0001BC0F90137FF04C0EE27FF27E21BF30B3D
:100EB000BA016E0F7F1F57FD16C04E1B5F0BCA0194
:100EC000E5E0880F991FEA95E1F70E94F026862F4A
:100ED00060E2681B37FD6195600F7D2F8C2FDF91DD
:100EE000CF910F910895CB0165E0880F991F6A9506
:100EF000E1F7BF01641B750B0E94F026862F60E6A8
:100F0000E8CF2695E22F26FDE0953E2F3F7026FD87
:100F10003F5FE695E695E695E670F0E0E059FE4F16
:100F20009181939F902D312D112492959F70329530
:100F3000307F932B3081930F27FD919597FD9195ED
:100F4000990F292F382F239F212D1124822F0895A7
:100F5000409114015091150125E038E0429FC001F5
:100F6000439F900D529F900D1124875E994C909352
:100F7000150180931401890F0895AC018230910509
:100F800008F408959FEF413E8EE1580740F49A011E
:100F900095E0369527959A95E1F798E0920F61E0F4
:100FA000E62FE90FFF27FF1F9F0135952795822F19
:100FB000229FF001239FF00DF00D11244E175F07C3
:100FC00038F49FEF920F961758F78FEF860F08951A
:100FD0002F3FE9F361E0620FF6CF30E020E0869F1B
:100FE000212D969F200D311D1124C9010895B0E0D7
:100FF000A0E0EDEFF7E00C9414279B01E82FF0E060
:10100000E455FC4F311109C0E4918E2F7E2F6E2FD5
:10101000CDB7DEB7E8E00C943027E32EF12CE49155
:10102000FE2F0E2F10E046E0649FC0011124CFEF89
:10103000D0E0BE010E94DC26AB01822F90E0880F39
:10104000991F25E5249FB001259F700D1124861B53
:10105000970B982F990F980FBE016E197F09609F0B
:10106000D001619FB00D709FB00D11248B2F399F5F
:1010700090011124232F3327BE01621B730B609F45
:101080009001619F300D709F300D11246E01C91ABF
:10109000D108CE9CB001CF9C700DDE9C700D112448
:1010A000672F7727C61BD70BC09F7001C19FF00C1D
:1010B000D09FF00C11247F2D42305105A1F050F447
:1010C0004115510509F4A3CF4130510581F07B2F23
:1010D000832F9DCF4430510569F080F04630510593
:1010E00009F495CFF4CFEB2F8F2D7F2F90CF7E2F4C
:1010F000E32F8DCFEF2D7B2F8F2F89CF732FEB2FEA
:10110000FBCF1F93CF93DF93C82FD0E0FE01E450B5
:10111000FE4F80816823A9F00E94A807182F0E9423
:10112000A80720E8829FC00111247FE7790F612F73
:10113000809160040E94F707472F282FCE010E945C
:101140002207DF91CF911F910895EF92FF920F93A5
:101150001F93CF93DF937C01809120010E94DA06D8
:10116000C82F192F609161046695669521E0620F82
:1011700008F46FEF80915504909156040E94ED079A
:10118000082FD0E0C11748F081E01A3208F080E063
:10119000CDB7DEB7E6E00C943227FE01E450FE4FF7
:1011A000808190912101892389F060915E04709182
:1011B0005F0480916004202F4C2FF70109950E9455
:1011C000F707472F282FCE010E9422072196DACF5A
:1011D00080E00895F894E82FE295EF70F0E031A1F7
:1011E000282F2F7081E090E001C0880F2A95EAF740
:1011F000982F9095932391A392A1892B82A3789401
:1012000008959091FF0392FF10C041E0282F2471B0
:10121000243009F040E031E0282F2871283009F00F
:1012200030E0431711F02CE0822793FF10C041E01B
:10123000282F2471243109F040E031E0282F287153
:10124000283109F030E0431711F02CE0822730916B
:10125000000430FF10C051E0282F2171213009F027
:1012600050E041E0282F2871283009F040E0541761
:1012700011F029E0822731FF10C041E0282F2171B1
:10128000213109F040E031E0282F2871283109F0A0
:1012900030E0431711F029E0822794FD877E0895FE
:1012A00082389105B9F1B0F48133910509F47DC01C
:1012B00048F48932910509F46DC08A32910509F428
:1012C0007BC008958533910509F45FC0893391058A
:1012D00009F10895833E9105D9F138F4803E9105D6
:1012E00029F1823E910579F10895863E9105D9F163
:1012F000873E910509F43EC0843E910541F5209159
:10130000000421FF24C08091FF0384FD19C087EEF3
:1013100090E008952091FF03237009F05AC02091B6
:10132000000423FF14C089E290E008952091FF0398
:1013300020FD38C03091000430FF09C024FF43C0B5
:1013400090E080E008952091FF0322FDF7CF0895FB
:101350002091FF0322FD3AC03091000430FD39C0D6
:1013600024FFF5CFEDCF2091FF0323FFF0CF24FD25
:10137000E7CFCDCF2091FF0323FD2EC03091000495
:1013800031FFEECF84EE90E008952091FF0325FF1A
:10139000DECFC9CF2091FF0325FD21C0209100049D
:1013A00023FFD5CF89E390E0D2CF2091FF0326FF22
:1013B000CECF8AE290E008952091FF0326FFC7CFA9
:1013C00081E390E0089583EE90E0089582EE90E04E
:1013D000089580EE90E0089586EE90E0089585E30C
:1013E00090E00895972F7430B8F46C30A8F48830EA
:1013F000B0F470E02CE0929F600D711D1124FB0190
:1014000090E3899FE00DF11D1124EE0FFF1FE455BD
:10141000FF4F85919491089580E090E0089581E0D8
:10142000FCCF1F93CF93DF930E945009EC01C115AD
:1014300080E5D807F0F5C11580E4D80708F09CC016
:10144000C03ED10520F5CD3CD10508F082C0C83A98
:10145000D10578F4C53AD10508F073C0C130D10583
:1014600019F1209709F1C430D105F0F4D0E0C0E0C3
:101470001BC0C33CD105D0F7C85AD0E0CC0FDD1F4C
:10148000C65DDE4F0990D881C02DD4640DC0C11552
:1014900080E2D80708F0D1C0C11581E0D80708F074
:1014A0005AC0C83ED10510F7CE01DF91CF911F91F0
:1014B0000895C03682E5D80718F5C03482E5D8070C
:1014C00008F06BC0C03282E5D80708F05FC0C115D4
:1014D00082E5D80708F497C02C2F2695269580E240
:1014E000289F900111248C2F8370C1E0D0E002C0AE
:1014F000CC0FDD1F8A95E2F7C22BD32BDD68D4CF4A
:10150000C03A82E5D80760F4C03882E5D80708F40D
:1015100059C0CF71D0E0DC2FCC27C46FD06AC4CFC4
:10152000C03C82E5D80708F462C0C03E82E5D80717
:1015300008F09CCFDC2FCC27CC27DF71C06FD06A9E
:10154000B3CFC55AD0E0C95DDE4FC881D0E0D064CA
:10155000ABCFD065A9CF8D2F0E940109182FCE01E6
:1015600099270E945009C12FD0E0DC2FCC27CC272F
:10157000DF71C82BD92B98CFCE0199270E94500933
:10158000CC27DF70C82BD92BD06A8ECFCF71D0E09B
:10159000DC2FCC27C16FD06A87CF2C2F26952695BC
:1015A000277080E2289F900111248C2F8370C1E066
:1015B000D0E002C0CC0FDD1F8A95E2F7C22BD32BFF
:1015C000DC6872CF2C2F26952695277080E2289F05
:1015D000900111248C2F8370C1E0D0E002C0CC0FA9
:1015E000DD1F8A95E2F7C22BD32BDA685DCF8C2FF3
:1015F0008F710E940109C82FD0E0DC2FCC27CC27A7
:10160000DF71D06251CF8C2F8F710E94010955E09C
:10161000D695C7955A95E1F7CF70D0E0DC2FCC274F
:10162000282F30E084FF05C044E0220F331F4A9585
:10163000E1F7C22BD32BD06937CF8D2F8F710E944A
:101640000109182FCE0199270E945009C12FD0E01F
:10165000DC2FCC27CC27DF71C82BD92BD2CF80959C
:1016600090919C02982390939C02089580919C02F3
:1016700090917302892B90917202992391F0892B9A
:1016800090911E01913071F49091FF0397FF0AC071
:101690009EE122E332E040E0915040F4411110928B
:1016A0007202089596E02AE232E0F5CFF9015191F5
:1016B0009F01552389F34F5FEFCF809154049091A0
:1016C0001B04981301C008958F5F8770FACFB0E0B4
:1016D000A0E0EDE6FBE00C9413277C010091B00242
:1016E0001091B1028091AE029091AF02082B192B9C
:1016F000CFE0D0E0CC24C394D12CBC2EC6010C2E5C
:1017000002C0880F991F0A94E2F780239123892B46
:1017100049F4219790F7B12C8B2DCDB7DEB7E9E0D6
:101720000C942F27B7018C2F0E94F2090E94110AF6
:10173000019779F3F1CFCF93DF93EC010E94670B10
:10174000BE010E94F2090E94110ADF91CF91089513
:10175000943078F58C3068F5E82FF0E08CE0989FB5
:10176000E00DF11D11249E2F977083E0F695E7950B
:101770008A95E1F7EE0FFF1FEE0FFF1FEE5AFD4FA8
:1017800050E040E080E0219130E0092E02C0369523
:1017900027950A94E2F721703327042E01C0220F07
:1017A0000A94EAF7822B4F5F5F4F4430510559F797
:1017B000089580E00895943098F58C3088F5E82FEE
:1017C000F0E08CE0989FE00DF11D11248E2F8770C2
:1017D00041E001C0440F8A95EAF783E0F695E7956A
:1017E0008A95E1F7EE0FFF1FEE0FFF1FEE5AFD4F38
:1017F00030E020E070E05191DF011197CB01022E23
:1018000002C0969587950A94E2F7817081958527A5
:10181000842385278C932F5F3F4F2430310559F760
:1018200008959093B1028093B002089521E030E0D2
:1018300002C0220F331F8A95E2F7209530958091E0
:10184000B0029091B102822393230E94110C08955B
:10185000909171028095892380937102282F2770BF
:1018600069F4891759F09091000492FF07C086959A
:10187000869586950E94160C10927102089521E0BB
:1018800030E002C0220F331F8A95E2F78091B00248
:101890009091B102822B932B0E94110C089590938A
:1018A000AF028093AE020895FC0124812223C1F08F
:1018B000808191810E949B0B92959F70963091F050
:1018C00058F4925F9F70923058F4803F19F030F4D2
:1018D000883E30F481E008959A5FF4CF843FD1F3DD
:1018E00080E00895883EB0F3813FD1F7F3CF6623BF
:1018F00009F45DC08D3C41F40E940D0681958093F2
:10190000F6030E94C40508958E3C19F40E940D064A
:10191000F6CF8F3C31F40E940D0681958093F5033C
:10192000F0CF803D19F40E940D06F8CF893D29F4CF
:101930000E94EB058093F703E4CF8A3D21F40E94D7
:10194000EB058195F7CF8B3D31F40E94EB05819536
:101950008093F803D6CF8C3D19F40E94EB05F8CFA5
:101960009FE2980F983070F4815D990B21E030E090
:1019700001C0220F8A95EAF78091F403822B8093AD
:10198000F403BFCF8D3D31F48091EE0381608093ED
:10199000EE03B7CF8E3D21F48091EE038260F7CF46
:1019A0008F3D09F0AECF8091EE038460F0CF40917F
:1019B000F5038D3C59F48091F60387FF0DC010921A
:1019C000F60341110BC01092EC0308C08E3C81F469
:1019D0008091F60318169CF3442381F08091F7035D
:1019E0009091F803892B09F08CCF1092ED0389CFE9
:1019F0008F3C49F447FFF0CF1092F5038091F60336
:101A00008111ECCFE0CF803D19F41416ACF3E4CF94
:101A10009091F703893D29F41916F4F61092F70313
:101A2000DBCF8A3D19F497FFD7CFF8CF9091F80319
:101A30008B3D29F497FFD0CF1092F803CDCF8C3D8A
:101A400019F41916CCF3C8CF9FE2980F983090F490
:101A5000815D990B21E030E0B90102C0660F771F6C
:101A60008A95E2F7CB0180959091F40389238093C6
:101A7000F403B2CF8D3D31F48091EE038E7F8093DD
:101A8000EE03AACF8E3D21F48091EE038D7FF7CF38
:101A90008F3D09F0A1CF8091EE038B7FF0CFA6E0C0
:101AA000B0E0E5E5FDE00C94192726E0FC01DE013D
:101AB000119601900D922A95E1F7FC01258189810B
:101AC0009A81222399F0662389F00E94670B182FD0
:101AD000682F89819A810E94DB0B69817A81812F2D
:101AE0000E94F2092696E3E00C9435270E94A80B89
:101AF000182FF3CF0F931F93CF93DF938B01EA013E
:101B000090911104943061F58093E9008FEF9091EA
:101B1000E800815095FD06C095ED9A95F1F700001B
:101B20008111F5CF8091E80085FF1AC00E94B803AB
:101B3000811111C08091E80085FD06C08091E80008
:101B40008E778093E800F2CFF80181918F01809326
:101B5000F100219779F78091E8008E778093E80073
:101B6000DF91CF911F910F91089543E050E0BC01A8
:101B700082E00E947A0D089546E050E0BC0182E0C8
:101B80000E947A0D089540E250E0BC0182E00E947C
:101B90007A0D0895CF93DF93EC0148E050E0BC014B
:101BA00081E00E947A0D88E0FE01A7E0B4E0019098
:101BB0000D928A95E1F7DF91CF91089581E08093AE
:101BC000E00080E28093D8001092C9008FE19EE48B
:101BD0000197F1F700C0000087E090EBDC018093F3
:101BE000690490936A04A0936B04B0936C0488E139
:101BF0009CE00FB6F894A895809360000FBE909378
:101C00006000FFCF35B13F7725B120684FB7F8941A
:101C10008EE693E0FC015191CF0168E025B9000008
:101C200000C057FF35B9550F000000C000C000C00C
:101C300035B900C06A9591F7F3E08C3E9F0751F7E4
:101C40004FBF8FE594E00197F1F700C000000895C1
:101C5000A7E0B0E0EEE2FEE00C940A27582E809157
:101C60001B01851124C090915D04937020911A018D
:101C700030E081E09217130609F480E081708093D0
:101C800022018091620490912101981739F080938C
:101C9000210140E060E080E00E941F072EE0251552
:101CA00060F0E52DF0E0EB56F64D0C94042781E052
:101CB000E5CF80912201811102C080E03DC040E06B
:101CC00060E080E00E941F07F8CF809120010E9411
:101CD000DA068983192F60915E0470915F04809108
:101CE00060040E94F707062FF72EE82E5981452F32
:101CF00050E05D834C839C81911720F081E01A3283
:101D0000D8F0DBCFEC81FD81E450FE4F80819091D3
:101D10002101892339F02E2D4F2D602F8C819D813B
:101D20000E9422078C819D8101969D838C83E3CF45
:101D300081E897E00E94A508909120019F5F909311
:101D4000200181110CC082E0809323018091220147
:101D5000811105C0511003C083E0809323012796B1
:101D6000E2E10C94262785EF96E0E4CF8CEE96E036
:101D7000E1CF83EE96E0DECF809120010E94DA066B
:101D80008983F92E60916104669580915504909144
:101D900056040E94ED07E82EB981AB2FB0E0BD8359
:101DA000AC838D01000F111F08581E4FB3E0DB2ECE
:101DB0003C813F1530F081E049E24F1508F0BCCF7F
:101DC0007CCFEC81FD81E450FE4F80819091210118
:101DD000892351F1F80140A94057550B21A9205200
:101DE000330B449FB001459F700D700D1124229F4D
:101DF000C001239F900D900D1124860F971F0E9404
:101E0000BD0790915F048D9DB00111247595679574
:101E10006E0D792F809160040E94F707472F282FBD
:101E20008C819D810E9422070E5F1F4F2C813D8176
:101E30002F5F3F4F3D832C83BBCF809120010E94B9
:101E4000DA068983192F60916104669580915504A3
:101E5000909156040E94ED07D82E9981892F90E029
:101E60009D838C83880F991FDC01A858BE4F7D018C
:101E70003C81311708F042CFEC81FD81E450FE4FE8
:101E80008081909121018923C1F0F70121A920527D
:101E9000330B40A94057550B60915E0470915F046D
:101EA000809160040D2D0E9444070E94F707472F80
:101EB000282F8C819D810E942207F2E0EF0EF11CF9
:101EC0002C813D812F5F3F4F3D832C83D1CF80916B
:101ED000200181111CC06091610420E1620F08F4AF
:101EE0006FEF80915504909156040E94ED0765E0D4
:101EF00070E00E94DC26892B51F40E94A8074AE278
:101F0000849FC001112490931601109217018091B3
:101F100020010E94DA069A8389839091220191110F
:101F200021C020911601309117018217130609F084
:101F3000E8F4AA81A2171306C9F0C0F0609121014C
:101F4000822F0E9481088BE290E09093170180938A
:101F500016010CC06091210189810E94810859817C
:101F60005F5F59838A8199819817A0F381E0BA81D4
:101F7000BA3208F4E1CEA1CE80912001811125C0B2
:101F8000E091C402F091C502FD83EC830E94FF043E
:101F90004091610420E431E0241B31094C815D81D2
:101FA000841B950B2817390780F40E94A8075AE272
:101FB000859FC001112490931801109219010E946D
:101FC000FF049093C5028093C402809120010E9477
:101FD000DA06192FA0911801B0911901BD83AC83C5
:101FE0008A171B0611F008F089CE9A171B0609F014
:101FF00008F484CEFD01E450FE4F808190912101D0
:10200000892309F47BCE0E94A80781FD1DC00E9490
:10201000A807082F0E94A807B0E88B9FC0011124D1
:102020007FE7790F80916004602F0E94F707472FA8
:10203000282F8C819D810E9422078BE290E0909353
:102040001901809318015ACE80E070E000E0ECCFD7
:1020500080912201882329F040E060E080E00E9426
:102060001F07809120010E94DA069B83409155044E
:102070005091560460915704709158048091DE028B
:102080009091DF02A091E002B091E10284179507E0
:10209000A607B70708F0B4C060915E0470915F04B2
:1020A000809160040E94F707F62E7A83E82E06ECF2
:1020B00012E0E8E7F1E0FD83EC83AC80BD805CE0FA
:1020C000A50EB11C8C809D80350168011982D60156
:1020D0008D916D01212C312C412C882319F02E2C4F
:1020E0003A804F2CF40181914F0190E0FC01E450C3
:1020F000FE4F208130912101232329F0222D432DF1
:10210000642D0E942207D3018E913D0190E0FC01D5
:10211000E450FE4F208130912101232329F0222D0C
:10212000432D642D0E942207F60180813197808320
:10213000F981FF5FF983F53051F6D80115968C913E
:10214000912CC12CD12C882319F09E2CCA80DF2C15
:10215000EC81FD81858190E0FC01E450FE4F2081FF
:1021600030912101232329F0292D4C2D6D2D0E9422
:102170002207AC81BD8116968C9190E0FC01E45061
:10218000FE4F208130912101232329F0292D4C2D50
:102190006D2D0E9422070E94A807837091E009F02C
:1021A00090E0F80195830A5F1F4FBD82AC829501D4
:1021B000285A314009F081CF2091610430E1230F8A
:1021C00008F42FEF60E1822F90E00E94ED07BC0140
:1021D00088EB9BE00E94DC26809155049091560488
:1021E000A0915704B0915804860F971FA11DB11DEF
:1021F0008093DE029093DF02A093E002B093E102AD
:1022000081E09B819A3208F497CD57CD80912001CF
:102210000E94DA06882EB92E80912201882361F06F
:1022200040E060E080E00E941F07E7EEF2E080E31C
:10223000DF011D928A95E9F78091200181111BC071
:10224000E091E302F091E402FD83EC830E94FF043D
:102250002C813D81821B930B21E08931910508F48B
:1022600020E02093E202499730F00E94FF0490930F
:10227000E4028093E302D12CC12C00E05CE0952EB7
:1022800065E5762E7AEAA72E6624639405C0E4E11C
:10229000EC1508F457C000E0202F30E09D9CA00111
:1022A0001124FA01E858FE4FE20FF31FE080E81412
:1022B00008F440C0EB1408F03DC0C394F12CF701C2
:1022C000E450FE4F808190912101892309F432C0AE
:1022D00049515D4F420F531F5D834C83DA011C91BE
:1022E000312F272D321B08F430E070915F042A2D26
:1022F000210F08F42FEF40916004822F880F820F86
:102300008E5F582F549F512D1124852F6A2D631BEA
:102310000E94F707472F282FC7010E9422078091AC
:10232000E202882339F0262D121B08F410E0AC815C
:10233000BD811C930F5F0C3009F0AECFD394B4E095
:10234000DB12A5CF81E0F9E2FB1508F0F5CCB5CCA6
:102350009090600443E0949E900111243695279557
:10236000369527953D832C836C80C92CD12C8FEF1B
:1023700090E0B6010E94F026862E809122018823EB
:1023800071F040E060E080E00E941F07E7EEF2E0BD
:1023900080E3DF011D928A95E9F71092E6028091B1
:1023A000E5028F5F8093E50210E000E0EC81FD81A3
:1023B000CE1ADF0A7801712CD801A951BD4F5D01F9
:1023C0008091E602872909F045C00E948D27853556
:1023D00095400CF03FC0D5019C92F701E858FE4FA4
:1023E000E081EF3FE1F0D701A951BD4F2C91F0E022
:1023F000621608F040C030E04C815D81241B350B33
:10240000249FC001259F900D349F900D1124B6018B
:102410000E94DC26262F492DCF010E9422077394AB
:102420005CE0E50EF11C84E07812CACF0F5F1F4F0D
:102430000C30110509F0BECF8091E502881202C070
:102440001092E5028091E6028F5F8D31F8F480935F
:10245000E60233CCF701E951FD4F8081882309F46E
:10246000BCCF891508F0B9CF9091E5028912B5CF9C
:1024700081508083B2CF929EC00111246C817D81F6
:102480000E94DC26462F20E060E0C6CF1092E602D4
:102490002FEF32E083E09FEF990DA7EEB2E0F90154
:1024A000833041F494964C919497941203C094967F
:1024B0009C9394974081491510F0908394861196CF
:1024C000319642E0A33FB40759F781502C503109AF
:1024D0008111E3CFF2CB809120010E94DA0689833B
:1024E000F92E2091610431E0230F08F42FEF30E042
:1024F00050E040E06FEF7FEF80E090E00E943029F5
:1025000089019981892F90E09D838C83EE24E39447
:102510002C812F1530F081E059E25F1508F00CCCCA
:10252000CCCBEC81FD81E450FE4F80819091210164
:10253000892311F1409140034150042E000C550BAA
:1025400047FF21C0C801609161042E2D620F08F47D
:102550006FEF0E94ED07AC0160915E0470915F0423
:10256000809160040E943D070E94F707472F282FA3
:102570008C819D810E9422074C815D814F5F5F4F5E
:102580005D834C83C5CFFA01E05CFC4F81898213E7
:102590000AC0FA01EE0FFF1FE05CFC4F818D928DA7
:1025A0008017910780F241505109CACF80914003B2
:1025B0008A8321E0382F321B08F430E03983809180
:1025C00020010E94DA069B83482F50E05F834E83F0
:1025D000CA01880F991FDC01A858BE4F6D01B9814F
:1025E0008B2F90E0FC013196FD83EC838B819E81E3
:1025F000981730F081E0AB81AA3208F49DCB5DCB17
:10260000EE81FF81E450FE4F80819091210189236A
:10261000E9F020905E0430905F042C813D81205CC5
:102620003C4F3901498010E03A814316C8F02091AF
:102630006004129F112D1124B101812F0E94F70710
:10264000472F282F8E819F810E9422074E815F8114
:102650004F5F5F4F5F834E8352E0C50ED11CC6CFE4
:10266000D3018D913D01F601A0A8A81ABB0881A84D
:1026700017968C91881A9908AA9C9001AB9C300DF2
:10268000300D1124889CC001899C900D900D11245F
:10269000820F931F0E94BD07082F6091610421E003
:1026A000620F08F46FEFF301EE0FFF1FE054F340E9
:1026B000858996890E94ED077C019401A501B101ED
:1026C000812F0E9425071B014394182FADCF4F92F5
:1026D0005F926F927F928F929F92AF92BF92CF92B2
:1026E000DF92EF92FF92CF93C0906903D0906A037C
:1026F000E0906B03F0906C030E94F3042B013C010B
:102700005C014B018C189D08AE08BF080E94F304C1
:102710006093690370936A0380936B0390936C03D7
:10272000A0911703E7E1F3E02A2F30E04FEFC40E4A
:10273000D41EE11CF11CC418D508E608F708A31341
:102740002AC02093170320916D03C0E0211108C017
:1027500020915D04C22FC37019F0C22FC695C69593
:1027600020912301213009F440C0222339F1223085
:1027700009F446C0233009F44EC0CF91FF90EF908A
:10278000DF90CF90BF90AF909F908F907F906F9091
:102790005F904F900895418D528D2A01712C612CCC
:1027A000C414D504E604F70420F421503F5F3296A8
:1027B000C6CF480D591D528F418FF8CF109220017E
:1027C0006093550470935604809357049093580473
:1027D00089E2E7E1F3E0A0E4B3E001900D928A958D
:1027E000E1F781E080932301C8CF8C2F0E94280E4F
:1027F000CC2319F28091200181500E94DA06BDCFCE
:10280000C0931B0180915D04837080931A010E9424
:10281000020E83E0E7CF80915C04882351F048E00A
:1028200050E067E170E08DE594E00E94FC28109292
:102830005C04C0905504D0905604E0905704F0908A
:1028400058040E94F3046C197D098E099F096031B8
:1028500071058105910508F490CF109223018DCF69
:102860009091000492FB222720F9281779F080FB31
:1028700092F9909300046091FF037091000484E04A
:1028800090E00E942A2982E00E94280C0895A8E086
:10289000B0E0EDE4F4E10C940D278E010F5F1F4FC3
:1028A00088E0F80111928A95E9F750E6E52E51E0AB
:1028B000F52ECC24C394D12CAA24A394B12CF701D7
:1028C00081917F018F3F09F450C0F894E82FE29581
:1028D000EF70F0E021A18F70A50102C0440F551FD9
:1028E0008A95E2F7CA01922F982B91A392A1809525
:1028F000892382A3789400C04CE6642E41E0742EB4
:10290000D801B60160957095F30191903F018D91CA
:102910009D91AD0142505109FFEF9F1609F485C00A
:10292000292D22952F7030E0F90120A130E0F92DFA
:10293000FF709F2E02C035952795FA95E2F720FD8E
:1029400074C08C299D29FA0191838083F0E76F166A
:10295000F1E07F06C9F6F701319780818F3F11F0D2
:102960000E94EA0820EA2A95F1F7CC0CDD1C4CE61F
:10297000E41641E0F40609F0A2CF48E050E0B801C7
:1029800086EA92E00E94C8287C01892B41F088E009
:10299000F801A6EAB2E001900D928A95E1F7109253
:1029A000A3021091A202112309F449C00E94FF045E
:1029B0002091A0023091A102FC01E21BF30B9F01C8
:1029C0009093A1028093A002EF3FF10509F080F5FA
:1029D000EF2B39F11092A20210929F026091A40293
:1029E0007091A502AB01445F5F4F645C7F4F90E044
:1029F00030E0FA013C978191882331F0DF01119793
:102A00002817C8F01C92912FE417F507A1F7AF0122
:102A1000445F5F4F6417750761F73093A20290938C
:102A20009F02E114F104D9F40DC0862397238BCFC4
:102A30002FEF30E0CFCF821B8C93312FE5CFE11405
:102A4000F10439F480919F02882309F453C01111D5
:102A500006C00E94FF049093A1028093A0021092EE
:102A60009F026091A4027091A5026090A202A6EA62
:102A7000B2E042EB52E08EEA882E82E0982E712C72
:102A8000AA24A394B12C2AE0522E0D911D91FA0193
:102A900081919191AF0108271927FB0130E020E0D7
:102AA0007501022E02C0EE0CFF1C0A94E2F76801C9
:102AB000CE20DF20C114D10451F0D080D11007C046
:102AC00050828E259F2577247394662463943196D3
:102AD0002F5F3F4F2C30310519F7645F7F4FFA01AC
:102AE0003297918380838A169B0679F66092A202C0
:102AF0007092A3028091A3022896EFE00C942927FC
:102B000080911E01813059F58091FF0387FF27C016
:102B10000E94360B8093310240E250E064E772E09D
:102B200080E392E00E94C828892BC1F080E2E0E3B4
:102B3000F2E0A4E7B2E001900D928A95E1F7E0910E
:102B4000FB03F091FC03309749F086E0809330025C
:102B50000480F581E02D80E392E0099508950E94BC
:102B6000360B8093280248E050E064E972E088E286
:102B700092E00E94C828892B89F388E0E8E2F2E01D
:102B8000A4E9B2E001900D928A95E1F7E091FB0390
:102B9000F091FC03309711F30280F381E02D88E27D
:102BA00092E0DBCF10929C0280911E01813039F5BA
:102BB0008091FF0387FF23C0E2E3F2E08EE1DF01B3
:102BC0001D928A95E9F790E080E00E94920590E0DE
:102BD00080E00E946D05109273020E94801586E0CD
:102BE000E3EFF3E0DF011D928A95E9F71092EC0321
:102BF0001092ED031092EE030E94C4050895EAE2DC
:102C0000F2E086E0DCCFAAE2B0E0E9E0F6E10C9485
:102C1000192783E194E02091F100FC012193CF0179
:102C2000F4E08B319F07B9F780911404833009F4E5
:102C300070C0B8F4813009F447C0823009F4B5C0DF
:102C40008091E80083FF89C280911304909114045D
:102C50009A3008F082C2E92FF0E0EC55F64D0C9462
:102C600004278A3009F490C08B3009F46FC0893092
:102C700039F780911304813219F7809117049091EC
:102C800018040297E8F68091E800877F8093E800B7
:102C90008091E80082FF38C09091F3008091F200AB
:102CA000029731F48091F100813011F0863021F4E7
:102CB0008091F10080931D018091E8008B778093D3
:102CC000E8000E94E903BCCF80911304813A09F027
:102CD000B7CF8091E800877F8093E8008091170448
:102CE00090911804892B61F468E087E094E070E02B
:102CF0000E9495048091E8008B778093E800A0CF34
:102D000060E090E080E0F3CF809111048111C0CFAA
:102D100097CF80911304813A09F092CF80911704E4
:102D200090911804892B09F08BCF8091E800877F60
:102D30008093E8008091E80080FFFCCF80911E0125
:102D40008093F1008091E8008E77B9CF80911304D1
:102D5000813209F075CF8091170490911804892B66
:102D600009F06ECF8091E800877F8093E8000E9491
:102D7000E90381E090911504911101C080E08093F6
:102D80001E010E94D2155CCF80911304813209F09C
:102D900057CF8091E800877F8093E8000E94E90385
:102DA0008091160480931C014BCF80911304813ACB
:102DB00009F046CF8091E800877F8093E8008091FA
:102DC000E80080FFFCCF80911C01BACF803899F0D9
:102DD000823809F0C2C1809117048F70873008F0E3
:102DE000BCC18093E9008091EB0085FB882780F9C6
:102DF0001092E90006C080910F0490911004911187
:102E000082609091E800977F9093E8008093F100B2
:102E10001092F1008091E8008E779BC1882309F41D
:102E200089C1823009F099C18091150481118CC14A
:102E3000809117048F702FEF280F263008F08DC176
:102E40008093E9002091EB0020FF7EC1933031F4A4
:102E50008091EB0080628093EB0076C19091EB0053
:102E600090619093EB0021E030E001C0220F8A9541
:102E7000EAF72093EA001092EA008091EB00886064
:102E8000EACF81116AC1109115041F778091E30088
:102E90008078812B8093E3008091E800877F809386
:102EA000E8000E94E9038091E80080FFFCCF809158
:102EB000E30080688093E30082E0111183E0809357
:102EC00011044BC18058823008F047C1809115042D
:102ED000909116048C3D23E09207A1F583E08A834C
:102EE0008AE289834FB7F894DE01139620E03EE032
:102EF00051E2E32FF0E050935700E49120FF03C02C
:102F0000E295EF703F5FEF708E2F90E0EA30C0F0F7
:102F1000C7968D939D932F5F243159F74FBF8091B2
:102F2000E800877F8093E8006AE270E0CE010196B6
:102F30000E9495048091E8008B778093E8000DC192
:102F4000C096E7CF4091170450911804292F3327DA
:102F50002330310509F444C078F52130310509F4F6
:102F60006FC08BE390E0E6EAF5E02230310509F02E
:102F7000F4C02091E800277F2093E80020911904F5
:102F800030911A048217930708F49C0140E0211540
:102F9000310509F064C0411162C08091E80082FDF2
:102FA000C9CF80911104882329F2853019F28091CC
:102FB000E80083FFF2CFBECF21323105A9F12232E2
:102FC000310509F0CAC04115510509F443C041302B
:102FD000510509F0C2C086EB90E0ECEAF4E0C9CFFD
:102FE000992781309105C1F0009759F0029709F0B7
:102FF000B4C0E3EFF5E0E4918E2F90E0E3EFF5E06D
:1030000007C0E3E2F6E0E4918E2F90E0E3E2F6E021
:10301000009709F4A2C0ADCFE1E0F6E0E4918E2F75
:1030200090E0E1E0F6E0F4CF4115510571F0413058
:10303000510509F092C089E090E0E1EDF5E099CF0B
:1030400082E190E0E1EEF5E094CF89E090E0E8EBFA
:10305000F5E08FCF84E490E0E2E6F5E08ACF80915E
:103060001104882309F466CF853009F463CF809179
:10307000E80083FD5FCF8091E80082FD8ECF8091D4
:10308000E80080FF84CF9091F3008091F200211539
:10309000310519F08830910550F041E0089709F0AA
:1030A00040E08091E8008E778093E80070CF4491F3
:1030B0004093F1003196215031090196E8CF8038D4
:1030C00009F04BC08091E800877F8093E8008091F1
:1030D00012048093F1009ECE81113FC0109115041F
:1030E0001230D8F58091E800877F8093E800109334
:1030F00012040E94E903112311F084E005C08091BD
:10310000E30087FDFACF81E08093110442E061EC97
:1031100081E00E94080442E261EC82E00E9408041F
:1031200080911104843021F081E080931F0115C04B
:1031300082E0FBCF80911504813079F481E09330F7
:1031400009F080E0809310041092E9008091E8007B
:10315000877F8093E8000E94E9038091E80083FF65
:103160000AC08091E800877F8093E8008091EB009F
:1031700080628093EB00AA96E3E00C9435270E94CE
:10318000D2152FEF84E39CE0215080409040E1F77E
:1031900000C0000088E19CE00FB6F894A8958093E9
:1031A00060000FBE90936000FFCF882321F00E9443
:1031B0002F0B0E9480150895882339F090919C026E
:1031C000982B90939C020E9480150895882381F18A
:1031D0009CEF980F913A28F40E940E050E948015EA
:1031E000089590E2980F983050F4877091E001C0F4
:1031F000990F8A95EAF7892F0E942F0BEFCF9BE555
:10320000980F933028F490E080E00E949205089592
:1032100098E5980F9B3128F490E080E00E946D05BE
:10322000089593E3980F933118F460E00E94770CAF
:103230000895CF93C82F8823B9F18CEF8C0F813A72
:10324000A8F580911E01813001F58091FF0387FF71
:103250001CC0EC2FE695E695E695F0E0E05DFD4FAD
:10326000828190E04C2F477021E030E002C0220FB5
:10327000331F4A95E2F782239323892B81F08C2F09
:103280000E940E050E9480150AC0EAE2F2E080E387
:1032900092E02191C21799F38E179F07D1F78C2FD7
:1032A0000E9439050E948015CF91089580E28C0F0D
:1032B000883068F4C77021E030E001C0220FCA9561
:1032C000EAF780919C02822B80939C02EBCFEBE586
:1032D000EC0FE33040F4F0E0E95DFE4F808190E0D8
:1032E0000E949205E1CFE8E5EC0FEB3150F4F0E0FD
:1032F000EE0FFF1FE65DFE4F808191810E946D05FC
:10330000D3CF83E38C0F833178F661E08C2F0E945A
:10331000770CCACFEF92FF920F931F93CF93DF9357
:10332000C62FD42F022FFC0185818823A9F060933A
:103330005B040E94FF0490935A0480935904C77061
:1033400081E001C0880FCA95EAF70E94DC18CDB76A
:10335000DEB7E6E00C94322780915B0468133DC031
:10336000E0905904F0905A040E94FF048E199F09BE
:10337000883C910590F510E21D0FCD17B9F080E261
:103380008C0F883040F4C77081E001C0880FCA9567
:10339000EAF70E94D518183048F481E09D2F977005
:1033A00001C0880F9A95EAF70E94DC18802F0E94CE
:1033B00019198FE99FE00197F1F700C00000802FF5
:1033C0000E94E618183018F6D77081E001C0880F07
:1033D000DA95EAF70E94D518BACFC77081E001C02C
:1033E000880FCA95EAF7F6CFB0E0A0E0EAEFF9E17E
:1033F0000C9412277C01FC018481882321F161E077
:10340000C7010E944F0DEC01FC01E851FC47E73079
:10341000F105A8F5E255F64D0C94042726E241EE9D
:1034200061EEC7010E948A1980917102877059F07C
:10343000F7018581882339F08091000482FF03C061
:1034400082E00E94280CCDB7DEB7EAE00C942E276C
:1034500027E245EE65EEE5CF26E241EE60EEE1CFF4
:1034600027E245EE64EEDDCF26E241EE62EED9CFF3
:1034700027E245EE66EED5CF28E241E0EBCFF7013B
:103480009581992309F4FEC310925B049E01305785
:103490002332310508F0E2C384E090E00E94F62870
:1034A000909300048093FF03FE01E150F047E23265
:1034B000F10520F4EB54F64D0C9404278091FF03A2
:1034C00081608093FF0395C08091000488608093A1
:1034D00000048FC08091FF038260F3CF8091FF03CF
:1034E0008460EFCF8091FF038860EBCF8091000470
:1034F0008160EDCF809100048260E9CF8091FF036D
:103500008061DFCF8091FF038062DBCF8091FF037A
:103510008064D7CF0E94D2158091FF038068D1CFFD
:103520008091FF038C60CDCF809100048360CFCF6A
:103530008091FF038E7FC5CF80910004877FC7CF26
:103540008091FF038D7FBDCF8091FF038B7FB9CF2B
:103550008091FF03877FB5CF809100048E7FB7CF26
:10356000809100048D7FB3CF8091FF038F7EA9CF20
:103570008091FF038F7DA5CF8091FF038F7BA1CF2B
:103580000E94D2158091FF038F779BCF8091FF031C
:10359000837F97CF809100048C7F99CF8091FF0328
:1035A00082FB992790F921E0922790FB82F990FB0A
:1035B00083F987CF80910004982F909591708E7F2A
:1035C000892B90FB81F983CF9091FF03892F8F7B0B
:1035D00096FF806476CF0E94D2159091FF03892FC9
:1035E00097FB87F980586DCF61E08EE090E00E94F4
:1035F0000C296091FF037091000484E090E00E9428
:103600002A290E94D21510CF60E0EFCF9091FF03DE
:10361000892F8F7E94FF806154CF9091FF03892F73
:103620008E7F90FF81604DCF90910004892F877F1E
:1036300093FF88604CCF85E320C385E32CC30E94B1
:10364000CC06F2CE8823A9F10E94B706EDCE8823DE
:10365000A9F10E94A306E8CE8823A9F10E94890659
:10366000E3CE8823A9F10E946F06DECE8823A9F15C
:103670000E945306D9CE80915D04837011F410929C
:10368000230180915D048C7F816080935D04809133
:103690005C04816080935C04C7CE80915D0483707C
:1036A00011F01092230180915D048C7FEECF88236E
:1036B00059F20E94C106B8CE882359F20E94AD0685
:1036C000B3CE882359F20E949606AECE882359F2D3
:1036D0000E947C06A9CE882359F20E946106A4CEDE
:1036E0009E01205E324520323105A8F4911115C0AB
:1036F000CF7181E090E09C0102C0220F331FCA9578
:10370000E2F7E901622F83E090E00E940C29CE01EC
:103710000E944F0C89CE992381F0C3303CE7D30738
:1037200009F477C008F05AC0C1159CE7D90709F41D
:1037300063C0C130DC4709F472C0F7018581C081E4
:10374000D181882309F479C0CE010E94670B182F1C
:10375000682FCE010E94DB0BBE01812F0E94F2096F
:103760000E94110AD82FC92FA82EF701C580B68054
:10377000B2949FE0B92280917102877001F10C2D03
:10378000CC20F1F08C2F807F803469F080E28D0FA7
:103790008830A8F08C2F807E803229F4F1E0FD176C
:1037A00070F4BB2061F08091000482FF08C082E0C9
:1037B0000E94280C80917102877001E009F000E0FE
:1037C000DC2ED2948FE0D8222BE02D1508F495C082
:1037D000ED2DF0E0E952F64D0C940427CB35FCE7D3
:1037E000DF0749F1CC352CE7D207D9F0CA35DC47E1
:1037F00009F0A3CF81E01CC00E94D2158FEF94E3A3
:10380000ECE081509040E040E1F700C000000E94F1
:10381000DE0D6FEF7FEF90E080E00E942A290E948A
:10382000BF188091000482FB882780F991E08927E6
:103830000E94301482CF80E0FBCFCE010E94A80B03
:10384000182F8ACF1C2F1F70C07F11F01295107F88
:10385000CC20B9F0112369F080E28D0F883010F090
:10386000A11009C080919C02182B10939C020E9409
:1038700080158D2F40C080917302182B1093730216
:10388000F6CF8D2F0E94E6181123B9F1D05ED83003
:1038900010F0A11004C0812F0E942F0B06C01095BC
:1038A000809173021823109373020E94801525C023
:1038B0001C2F1F70C07FC03211F01295107FAA20FC
:1038C00051F031E0A31609F459C0CC2009F465C0C9
:1038D000BB2051F1CECF8091000482FD21C0CC20CD
:1038E000C9F0112339F080919C02182B10939C028F
:1038F0000E94801580E00E941919ED2DE850FF0B01
:10390000349708F092C10E94B70560E0C7010E9499
:103910004F0D99CD80E00E94E618112371F3BBCFC3
:10392000CC2099F0B11004C0812F0E94DC18E5CFA3
:1039300081E0B812E2CF80917202912F982319177B
:10394000E1F2182B10937202D8CFB110D6CF812F8D
:103950000E94D51890917202812F892329F0812F1E
:10396000809589238093720280915102912F982330
:1039700021F21095182310935102BFCFCC2029F0CB
:1039800095E09B1508F4B9CFCFCFE4E0EB1508F430
:10399000B4CF812F0E94D518B0CFBB20D1F3F9E36B
:1039A000AF120DC02FEF37EE83E021503040804042
:1039B000E1F700C000008D2F0E94E6189ECFEFE9CE
:1039C000FFE03197F1F7F5CF8C2F869586958370C0
:1039D00069F0813009F091CF8D2F9C2F9370C11029
:1039E00002C080E090E00E946D0587CF8D2F9C2F54
:1039F0009370C11002C080E090E00E9492057DCFDC
:103A00006C2D8D2F0E94770C78CF8C2F837009F04E
:103A10003FC0C11072CF4D2F429546954770440F5D
:103A2000440F2D2F2F7030E0042E02C0220F331FC1
:103A30000A94E2F790E080E0D4FF09C08FE090E0C4
:103A400002C0880F991F4A95E2F780959095C69518
:103A5000C695C370C23099F078F44091AE0250918F
:103A6000AF02C13039F0822B932B842395230E941F
:103A70004F0C43CF242B352B822B932BF8CF822B4B
:103A8000932B2091AE023091AF0282279327EFCF84
:103A90008695CC2011F08C2F8170882309F42DCFCE
:103AA0004D2F429546954770440F440F2D2F2F7090
:103AB00030E0042E02C0220F331F0A94E2F790E098
:103AC00080E0D4FF09C08FE090E002C0880F991F0A
:103AD0004A95E2F780959095C695C695C370C23019
:103AE00099F078F44091B0025091B102C13039F0B0
:103AF000822B932B842395230E94110CFECE242B22
:103B0000352B822B932BF8CF822B932B2091B00255
:103B10003091B10282279327EFCFCF70CC2029F0CC
:103B20008C2F0E943F0C8D2F00CF8D2F0E94D51817
:103B30008C2F0E94160CE1CE8D2FF2EFAF1699F16B
:103B4000FA1570F020EFA216D1F031EFA31691F024
:103B5000CC2009F456C0B1108CCE8C2F8F7127C0A9
:103B600093EFA91639F1E4EFAE12F2CF9091000471
:103B700092FD2EC08C2F8F71CC20D9F218C0CC2092
:103B800069F0F4E0FB1508F4B8CECF7181E090E065
:103B900002C0880F991FCA95E2F7B8CF25E02B1510
:103BA00008F4ABCEF2CF8C2F8F71C110C2CF0E9420
:103BB0003F0CA3CE90E080E0CC2009F49DCFCF71E4
:103BC00081E090E002C0880F991FCA95E2F794CF78
:103BD000CC2061F08C2F8F7192FFE9CF98E0899F04
:103BE00090011124236020937102E1CF81E00E94B3
:103BF000280CE1E0EB1508F080CE82E00E94280C52
:103C00007CCEBB2079F0893341F4FFEF27EE33E01F
:103C1000F15020403040E1F7CCCE8FE99FE0019792
:103C2000F1F7C7CE8C2F8F7184CF002309F46DCEAE
:103C30008091710280FD69CEF70115828695869587
:103C400086950E943F0CC7010E94F4198091710271
:103C50008695869586950E94160C57CE80919C027B
:103C6000C631FCE7DF07D1F48A7A91E009F490E0ED
:103C7000909350028111DFCC89E20E9439050E94A5
:103C80008015D2CBC6312CE7D207A1F48091500227
:103C90008111D3CC89E20E940E05F1CF8272FE0120
:103CA000E052F847EB30F10508F01ACDED51F64D32
:103CB0000C94042780919C028272FE01E054F84724
:103CC000ED30F10508F00CCDE251F64D0C940427CF
:103CD000CF93DF9380917002807F09F04DC0809177
:103CE0006F02882309F448C0E091540450911B04EA
:103CF000C0916B02D0916A0260916C0270916D026A
:103D000047E05E17C9F18E2F90E0E49FF001112487
:103D1000E45EFB4F2481222391F1489FF001499FEB
:103D2000F00D1124DF01A45EBB4F11962C91119769
:103D30002C1325C02C912D1322C015962C9115976C
:103D400021111DC012962D913C91261B370B283C4A
:103D50003105A8F4809170028F70806180937002A9
:103D6000EE5DFB4F80818F70806180838AE692E0F8
:103D70000E94F4190E945D0BDF91CF910895FC0120
:103D80003196E770BECFA4E1B0E0E9ECFEE10C941F
:103D900010278C0186E0F801DE011F9601900D923C
:103DA0008A95E1F7F8018481E5809AE6A92E92E0F0
:103DB000B92E90916E02911128C0882319F1EE203E
:103DC000F1F0C8010E94540CF82E8823C1F087E05E
:103DD000F801D50101900D928A95E1F780916E026C
:103DE000813031F480916A0290916B020E949B0BAA
:103DF0000E94681E8F2D6496ECE00C942C27C8015D
:103E00000E94F419FF24F394F5CFD080C180828002
:103E10009380F0906F0220916C0230916D02A401AA
:103E2000421B530BFF2009F4D9C0483C510508F050
:103E300092C08823F9F290916B0280917002282F32
:103E4000207F09F056C0C91214C090916A02D9129D
:103E500010C0E11048C08F708061809370028AE6C4
:103E600092E00E94F41980917002F8018683F12C8F
:103E7000C1CFE11038C06C2D8D2D0E947A036C2DBE
:103E80008D2D0E947A03E82E8111F1CFDF86C88A3A
:103E90008F8598890E949B0B292F22952F702430A3
:103EA00058F49F70223088F0992399F0F801968198
:103EB000907F79F4FE2C9ECF2A5F2F70223068F01D
:103EC000C8010E94F419EF2CF5CF992311F0882333
:103ED00089F3805E883070F3F3CF803F58F3815FC1
:103EE000833070F7E7CF8091700281608093700219
:103EF000BECFC91207C090916A02D91203C0EE204A
:103F000009F48DC0C8010E94540C882309F477CFAE
:103F1000EE2009F474CF80917002803288F02091F5
:103F20006A0230916B02398728879B868A86909136
:103F30006E029C871D868E87CE0108960E94F4191A
:103F400087E0F801AAE6B2E001900D928A95E1F7C8
:103F50000E94681E57CF90917002292F207F51F444
:103F60008AE692E00E94F41987E0F50111928A95A1
:103F7000E9F77DCF882309F43DCF80916B028C1146
:103F800010C080916A02D8120CC0E1100AC096835A
:103F9000C8010E94F41987E0F50111928A95E9F7AA
:103FA00029CFC8010E94540C882309F428CFEE20A1
:103FB00009F425CF80917002803210F220916A02BC
:103FC00030916B023A8329839C828B8290916E029E
:103FD0009D831E828F83CE010196B0CF483C510550
:103FE000D0F6882309F40ECFFE2CEE2009F407CF7B
:103FF00080916B028C1120C080916A02D8121CC083
:104000008091700280FD0FC0982F907F61F08683B1
:10401000903F31F0982F907F905F8F70892B86832F
:10402000C8010E94F41987E0F801AAE6B2E0019005
:104030000D928A95E1F7DECEC8010E94540C8111E1
:104040007FCF80917002816080937002C8010E94CE
:10405000F419D0CEABE1B0E0E0E3F0E20C94192724
:104060004E8B5F8B688F798F8A8F9B8F9111109207
:1040700073021D8A86E0FE017696DE011F9601908E
:104080000D928A95E1F78B89882351F061E0CE018A
:104090000F960E944F0D61E0CE010F960E944F0DCA
:1040A00087E0FE013F96DE01189601900D928A95F9
:1040B000E1F7CE0108960E94C31E81112AC087E055
:1040C000FE013896DE01119601900D928A95E1F776
:1040D0008C858823F1F020911B0430E0C901019602
:1040E000877099274091540448171906E9F097E022
:1040F000929FD001939FB00D1124A45EBB4FFE018F
:10410000319601900D929A95E1F780931B040E94DD
:104110005D0B17E08091540490911B04891312C029
:104120006B96E3E00C9435270E94D21510921B0485
:104130001092540487E0EAE6F2E0DF011D928A95CE
:10414000E9F7E7CF819FC0011124845E9B4F0E9455
:10415000C31E882329F38091540490E00196877050
:10416000992780935404D6CFA6E0B0E0EAEBF0E2C2
:104170000C9418270E94FF048C0180919D0290915D
:104180009E028017910781F019821A820E94FF0413
:10419000682F49815A81792F80E090E00E942A207F
:1041A00010939E0200939D022696E4E00C9434271F
:1041B0001F920F920FB60F9211242F933F934F939C
:1041C0005F936F937F938F939F93AF93BF93CF939F
:1041D000DF93EF93FF93D091E900DF708091EC00C3
:1041E000C82FC17080FDC0E81092E9008091F000F6
:1041F000877F8093F00078940E9403161092E90064
:104200008091F00088608093F000CD2BCF70C09338
:10421000E900FF91EF91DF91CF91BF91AF919F9115
:104220008F917F916F915F914F913F912F910F905F
:104230000FBE0F901F9018951F920F920FB60F92FE
:1042400011242F933F934F935F936F937F938F939B
:104250009F93AF93BF93EF93FF938091E10082FF11
:1042600009C08091E20082FF05C08091E1008B7F50
:104270008093E1008091DA0080FF24C08091D80013
:1042800080FF20C08091DA008E7F8093DA008091D9
:10429000D90080FFAAC080E189BD82E189BD09B44F
:1042A00000FEFDCF81E0809311048091060481110E
:1042B00009C00E9499030E943A048091E200846040
:1042C0008093E2008091E10080FF1AC08091E200BB
:1042D00080FF16C08091E2008E7F8093E200809183
:1042E000E20080618093E2008091D8008062809338
:1042F000D80019BC85E08093110483E080931F01EE
:104300008091E10084FF30C08091E20084FF2CC0E6
:1043100080E189BD82E189BD99B5892F817090FFC7
:10432000FBCF9091D8009F7D9093D8009091E100B1
:104330009F7E9093E1009091E2009F7E9093E20037
:104340009091E20091609093E20090911204992381
:1043500009F451C094E090931104909111049430A9
:1043600009F482E080931F018091E10083FF2CC05B
:104370008091E20083FF28C08091E100877F8093D5
:10438000E10082E080931104109212048091E10018
:104390008E7F8093E1008091E2008E7F8093E20027
:1043A0008091E20080618093E20042E060E080E082
:1043B0000E9408048091F00088608093F00081E002
:1043C00080931F0180931E01FF91EF91BF91AF91E8
:1043D0009F918F917F916F915F914F913F912F911D
:1043E0000F900FBE0F901F90189519BC10921104DA
:1043F0001092060467CF9091E30097FD02C0982FBA
:10440000AACF93E0A8CF78941F921FB61F921124D1
:104410008F939F93AF93BF93809102049091030475
:10442000A0910404B09105040196A11DB11D8093D3
:10443000020490930304A0930404B0930504BF9175
:10444000AF919F918F911F901FBE1F9018951F9243
:104450001FB61F9211248F939F93AF93BF938091A8
:104460000104811113C08091020490910304A09172
:104470000404B09105044196A11DB11D809302046E
:1044800090930304A0930404B0930504BF91AF91EB
:104490009F918F911F901FBE1F901895CDB7DEB7CB
:1044A0006B970FB6F894DEBF0FBECDBF85B780689F
:1044B00085BF85B7806885BF84B7877F84BF0FB607
:1044C000F894A895809160008861809360001092B4
:1044D00060000FBE80E890E00FB6F8948093610012
:1044E000909361000FBE81E080931F0188EE98E0F9
:1044F00090932702809326020E9499030E943A0417
:104500008091E20084608093E200789480911104AD
:104510008823A1F01091E9001F709091EC00892F81
:10452000817090FD80E8182B1092E9008091E800DE
:1045300083FD0E9403161F701093E90082E084BD82
:1045400093E095BD9AEF97BD80936E0000E611E071
:10455000D8018D918D018F3F11F00E94EA08B1E0E2
:104560000C361B07A9F787E60E94EA0885E90E9436
:10457000EA0883E90E94EA0882E90E94EA0888E0E2
:10458000E2EBF2E0DF01282F1D922A95E9F7E6EA37
:10459000F2E0DF011D928A95E9F780E390E00E9446
:1045A0009D27AC019093A5028093A40230E020E007
:1045B000FA01E20FF31F90E011929F5F9C30E1F748
:1045C000245F3F4F2033310599F790E080E00E944F
:1045D000F628853E9E4F09F461C065EE7EEF90E0BF
:1045E00080E00E942A2960E082E090E00E940C298D
:1045F00081E090E09093AF028093AE0261E083E0AF
:1046000090E00E940C2960E074E184E090E00E9458
:104610002A2960E086E090E00E940C2960E087E0B3
:1046200090E00E940C2940E050E0BA0188E090E060
:104630000E941E2960E083E290E00E940C2960E065
:104640008CE090E00E940C2960E08DE090E00E94F8
:104650000C2919821A821B821C821D821E821F82D3
:10466000188648E050E067E170E0CE0101960E94B4
:10467000FC2840E050E0BA018FE190E00E941E2942
:1046800040E050E0BA018FE090E00E941E2940E037
:1046900050E0BA0183E190E00E941E2982E090E0A0
:1046A0000E94EE288093BA0284E090E00E94F628EF
:1046B000909300048093FF030E944714EFEFF9EFFB
:1046C00020E0E150F0402040E1F700C000000E94EF
:1046D00047148091B20280FF08C06FEF7FEF90E037
:1046E00080E00E942A290E94DE0D83E090E00E9473
:1046F000EE2890E00E944F0C0E9451061092400359
:104700008FEF9FEF90935A038093590390935C032C
:1047100080935B0390935E0380935D0390936003AB
:1047200080935F039093620380936103909364038B
:10473000809363039093660380936503909368036B
:104740008093670310921703909331038093300393
:104750009093330380933203909335038093340313
:1047600090933703809336039093390380933803F3
:1047700090933B0380933A0390933D0380933C03D3
:1047800090933F0380933E0381E080935C0448E074
:1047900050E067E170E08DE594E00E94DE28109221
:1047A0005C0480915D048C7FF9F481E180935D0469
:1047B0008091240190912501A091260180935E04AF
:1047C00090935F04A09360048FE7809361048FEF60
:1047D0008093620448E050E067E170E08DE594E08A
:1047E0000E94FC2810925C048AE091E09093FC0304
:1047F0008093FB0380911104853089F411E000E47B
:1048000083E0F82E92E1E92E80911104853009F4BD
:10481000B0C00E94D2150E94B70510926D030E948D
:104820004714ABEBB2E0BA8BA98BE2EBF2E0FD8B65
:10483000EC8B43EC52E0DF01EBEBF2E021913191A4
:104840008D919D914E175F0709F4DEC02817390737
:10485000A9F3712C612CF12CAC89BD892D903D9070
:10486000BD8BAC8BE989FA8981919191FA8BE98BA7
:104870008215930509F428C26301E12C4424439472
:10488000512C9C01222533253F8B2E8B8E899F89AD
:1048900084219521892B09F409C2420182209320A9
:1048A000E986FA860E94FF049C878B8731E03D876A
:1048B00091E08114910409F490E09E8749855A851E
:1048C0006B857C858D850E942A208114910439F0A6
:1048D000F601E858FE4F80818F3F09F080C11F86A6
:1048E0005F85052F10E080911703800F912F911D98
:1048F000099774F1F8E0AF2EB12CA01AB10AB801F3
:10490000685E7C4FA50188E193E00E94D528B8013C
:10491000605E7C4FA50180E293E00E94D528A5014E
:10492000440F551FB801660F771F605D7C4F80E311
:1049300093E00E94D528B801685D7C4FA50188E20C
:1049400093E00E94D52888E09F85891B80931703F8
:104950008091170390E0EB89AE2FB0E09D01220F0C
:10496000331F28553E4FAA0FBB1FBD0167557E4F11
:104970004FC180911104843009F438C00E9467133C
:1049800080916D0381110DC00E94280E10921B01B1
:1049900080915D04837080931A010E94020EF09250
:1049A000230110936D031092010448E150E00FB60B
:1049B000F894A895409360000FBE0093600083B701
:1049C000817F846083BF83B7816083BF789488953B
:1049D00083B78E7F83BF0FB6F894A895809160004F
:1049E000886180936000109260000FBE0E9447149F
:1049F000E2EBF2E081919191892B09F0B2C152E092
:104A0000EA3BF507B9F700CF2817390709F021CF9E
:104A10000E94B4200E94671386E0E3EFF3E0DE011A
:104A2000119601900D928A95E1F7B090F403E09011
:104A3000F503F090F603C090F703D090F8031092BE
:104A4000F5031092F6031092F7031092F8038F2DDE
:104A50008E2909F447C00091F1031091F2030E94DE
:104A6000FF049C01201B310B9091EC03992309F466
:104A70009EC125313105B0F19F3F19F09F5F9093A2
:104A8000EC03EE2059F00E940D069FEF1E140CF46B
:104A900091E0899F802D11248093F503FF2059F028
:104AA0000E940D0691E01F140CF09FEF899F802D4E
:104AB00011248093F6038091F503882399F01091D7
:104AC000F603112379F00E942D06882309F441C1D1
:104AD0008093F503812F0E942D06882309F43BC1A2
:104AE0008093F6038C2D8D2909F447C00091EF03C4
:104AF0001091F0030E94FF049C01201B310B909148
:104B0000ED03992309F44EC121353105B0F19F3FE2
:104B100019F09F5F9093ED03CC2059F00E94EB05B4
:104B20009FEF1C140CF491E0899F802D1124809339
:104B3000F703DD2059F00E94EB0591E01D140CF005
:104B40009FEF899F802D11248093F8038091F703B4
:104B5000882399F01091F803112379F00E942D0613
:104B6000882309F4FAC08093F703812F0E942D0651
:104B7000882309F4F4C08093F8038091F403B812F9
:104B800017C08091F503882311F0E81211C020911D
:104B9000F603222311F0F2120BC09091F80399232F
:104BA00011F0D91205C03091F703332309F4F5C091
:104BB0000E94C40586E0FE013196A3EFB3E00190A8
:104BC0000D928A95E1F70E94B7059091C30289176B
:104BD00009F410CE8093C3020E94F3040BCE8B8B9A
:104BE00041E04F877DCE90E0FC01E95EFC4FD901AA
:104BF0005C915183DB015C915187BB89B18B880F3C
:104C0000991FFC01E95EFC4F128E118E91E0842FFA
:104C100041E0480FFF859F1730F3809317038928E1
:104C200009F444C080915D048C7F8C3209F03EC051
:104C3000F601E858FE4F80818F3FC1F1B12CA12CC5
:104C4000812C90E09C01220F331FA90148555E4F33
:104C5000598F488FD901A755BE4FBB8FAA8FF60138
:104C6000E951FD4FF88BEF878501912CF801E85849
:104C7000FE4F80818F3F61F0F81030C0E9102EC0E8
:104C8000AF85B8892C9130E2230F08F42FEF2C93D5
:104C900093940F5F1F4F4CE09412E8CF83945CE035
:104CA000A50EB11C80E3A816B104F1F6E394440C00
:104CB000551C9FEFC91AD90AACE0EA12E7CDE98981
:104CC000FA89329731822082F394BCE06B0E711C1A
:104CD000E4E0FE12C1CD0E94F3049CCE90E0A88DCA
:104CE000B98D4C91FC01EE0FFF1FE855FE4F20815E
:104CF000421B550BEA8DFB8D2081880F991FFC010B
:104D0000E858FE4F81A9281B330B449FB001459FF3
:104D1000700D700D1124229FC001239F900D900DE6
:104D20001124860F971F0E94BD07893208F0B0CF6B
:104D300028E2382F231B08F420E0F801E951FD4F49
:104D4000213108F020E13081320F08F43FEF308349
:104D50009FCF81E0BDCE81E0C3CE81E004CF81E072
:104D60000ACF80911004882309F44ECD80E189BDDB
:104D7000E9BC09B400FEFDCF8091D8008F7D8093FF
:104D8000D8008091E00082608093E0008091E00094
:104D900081FDFCCF0E94D21537CD822B892B09F4DF
:104DA00009CF06CF2B30310508F0B3CEE6CE2B303D
:104DB000310508F063CE96CEAA1BBB1B51E107C09C
:104DC000AA1FBB1FA617B70710F0A61BB70B881F9B
:104DD000991F5A95A9F780959095BC01CD0108952A
:104DE00097FB072E16F4009407D077FD09D00E9498
:104DF000DC2607FC05D03EF4909581959F4F0895E1
:104E0000709561957F4F0895EE0FFF1F0590F49107
:104E1000E02D09942F923F924F925F926F927F9272
:104E20008F929F92AF92BF92CF92DF92EF92FF92BA
:104E30000F931F93CF93DF93CDB7DEB7CA1BDB0B66
:104E40000FB6F894DEBF0FBECDBF09942A8839880B
:104E500048885F846E847D848C849B84AA84B98412
:104E6000C884DF80EE80FD800C811B81AA81B9811E
:104E7000CE0FD11D0FB6F894DEBF0FBECDBFED0132
:104E800008958F929F92AF92BF92CF92DF92EF924E
:104E9000FF92CF93DF93EC01688179818A819B81B6
:104EA000611571058105910521F464E279ED8BE5C9
:104EB00097E02DE133EF41E050E00E9430294901B5
:104EC0005A019B01AC01A7EAB1E40E944F296B0192
:104ED0007C01ACEEB4EFA50194010E945D29DC01D8
:104EE000CB018C0D9D1DAE1DBF1DB7FF03C00197EB
:104EF000A109B04888839983AA83BB839F77DF91F8
:104F0000CF91FF90EF90DF90CF90BF90AF909F90A8
:104F10008F9008950E944127089580E091E00E94BB
:104F200041270895B0E0A0E0809300019093010133
:104F3000A0930201B093030108950F931F93CF93A1
:104F4000DF938230910510F482E090E0E0916704F5
:104F5000F091680430E020E0B0E0A0E0309799F4F0
:104F60002115310509F447C0281B390B24303105C0
:104F7000C0F58A819B816115710571F1FB019383F5
:104F80008283FE0111C04081518102811381481743
:104F90005907F8F04817590799F4109761F01296DD
:104FA0000C93129713961C933296CF01DF91CF91F9
:104FB0001F910F9108950093670410936804F4CF34
:104FC0002115310519F04217530718F49A01BD0154
:104FD000EF01DF01F801C2CF90936804809367046A
:104FE000D0CFFE01E20FF31F81939193225031093C
:104FF00039832883DACF2091650430916604232B0E
:1050000041F420910601309107013093660420930A
:10501000650420910401309105012115310541F409
:105020002DB73EB74091080150910901241B350B63
:1050300040916504509166044217530708F0B5CFBC
:10504000241B350B2817390708F4AFCFBC016E5F5E
:105050007F4F2617370708F4A8CF640F751F70938A
:10506000660460936504FA01819391939ECFCF9378
:10507000DF930097E9F0FC01329713821282C0910E
:105080006704D0916804DE0130E020E02097A1F4AD
:1050900020813181820F931F209165043091660435
:1050A0002817390709F067C0F0936604E093650498
:1050B000DF91CF910895DA01AE17BF0708F040C025
:1050C00012964D915C9113979D014115510599F7E9
:1050D000D9011396FC93EE9312974D915D91A40F15
:1050E000B51FEA17FB0779F4808191810296840F3E
:1050F000951FD90111969C938E938281938113966B
:105100009C938E931297B0E0A0E08A819B810097D8
:10511000B9F5FE0181919191E80FF91F8091650425
:10512000909166048E179F0719F6109761F51092FB
:10513000680410926704D0936604C0936504B8CFE6
:10514000B383A28340815181840F951FA817B907AB
:1051500071F44E5F5F4F8D919C911197480F591FCD
:105160005183408312968D919C9193838283211564
:10517000310509F0ADCFF0936804E093670498CF50
:10518000DE01EC01C2CF13961C921E921297D3CF70
:10519000FB01DC0104C08D910190801921F4415084
:1051A0005040C8F7881B990B0895FB01DC0102C031
:1051B00001900D9241505040D8F70895DC01CB0189
:1051C000FC01F999FECF06C0F2BDE1BDF89A319617
:1051D00000B40D9241505040B8F70895F999FECFB0
:1051E00092BD81BDF89A992780B50895A8E1B0E0F5
:1051F00042E050E00C94E028DC01A40FB51F4150C0
:10520000504048F0CB01840F951F2E910E940D292C
:1052100041505040D0F70895262FF999FECF92BD06
:1052200081BDF89A019700B4021639F01FBA20BD6B
:105230000FB6F894FA9AF99A0FBE08950396272F9D
:105240000E940D290E940C29252F0E940D29242F30
:105250000C940D290196272F0E940D290C940C29DE
:10526000052E97FB1EF400940E94472957FD07D096
:105270000E94622907FC03D04EF40C9447295095F4
:105280004095309521953F4F4F4F5F4F0895909532
:105290008095709561957F4F8F4F9F4F08950E9425
:1052A0008429A59F900DB49F900DA49F800D911D02
:1052B00011240895B7FF0C944F290E944F29821B97
:1052C000930B0895A1E21A2EAA1BBB1BFD010DC072
:1052D000AA1FBB1FEE1FFF1FA217B307E407F507A6
:1052E00020F0A21BB30BE40BF50B661F771F881F82
:1052F000991F1A9469F760957095809590959B0118
:10530000AC01BD01CF010895A29FB001B39FC001C0
:10531000A39F700D811D1124911DB29F700D811DE1
:105320001124911D0895F894FFCF590E650E980E23
:10533000B30EB60EB90EBC0E1D0F670FBC0F2810B2
:105340000611A8116B12D612E6160E17AD180E171D
:10535000AD1841176217AD185F186C182C1A301A67
:105360000E1A281A341A381A3C1A981A0D1BA01A49
:105370006A1A6E1AA41A721AA81AB41A7E1A061B8E
:10538000821AB81A861ABC1AE41A8A1AC01AEB1AB8
:10539000901AC61ACE1A761AAC1A7A1AB01A941A39
:1053A000CA1ADA1AF41A041B641A9C1A141B221C57
:1053B000221C581C581CE41C001D7D1C7D1C051D56
:1053C0008D1D9C1D9C1D1F1B221B571B271B5C1B1F
:1053D0002C1B611B311B661B361B6B1B3B1B4D1BA8
:1053E0001F1B221B571B271B5C1B2C1B611B311B0C
:0653F000661B361B6B1B5F
:1053F6000100000000006D0420000B05CA0DC30D5E
:10540600BC0DB50D39052B002B00FFFF0000010078
:1054160000FF000300FFAA818283E200E900EA00A0
:10542600B500B600B700CD008301CC008A01920119
:1054360094012102230224022502260227022A02BF
:10544600B300B4006F0070009F01CB019F02A00261
:10545600663635349796F0F1F4F5F6F7679593923C
:10546600003131295A1B750A0C0B08070403242541
:10547600262728290D0A09060502232221201F1E98
:105486000E0F1011120118191A1B1C1DFFFFFF1316
:105496001415001617FFFFFF70205C245E19610EBD
:1054A600500D4D183E12400831062E111C171E0DC8
:1054B6000E0B0B1608201A222B1C3D1D4C224E2EBD
:1054C600613170387F31922E84249422A41DB41C3D
:1054D600C622D720D416C417B211A1129218821967
:1054E6007E0E8F0D9F08AF06C20DD20B0404040476
:1054F6000404040404040404040404040404040466
:105506000404040404040404040404040404040455
:0655160004040404040477
:00000001FF
